{"abi":[{"type":"function","name":"BURNER_ROLE","inputs":[],"outputs":[{"name":"","type":"bytes32","internalType":"bytes32"}],"stateMutability":"view"},{"type":"function","name":"DEFAULT_ADMIN_ROLE","inputs":[],"outputs":[{"name":"","type":"bytes32","internalType":"bytes32"}],"stateMutability":"view"},{"type":"function","name":"HOOK_ADMIN_ROLE","inputs":[],"outputs":[{"name":"","type":"bytes32","internalType":"bytes32"}],"stateMutability":"view"},{"type":"function","name":"UPGRADE_INTERFACE_VERSION","inputs":[],"outputs":[{"name":"","type":"string","internalType":"string"}],"stateMutability":"view"},{"type":"function","name":"balanceOf","inputs":[{"name":"account","type":"address","internalType":"address"},{"name":"id","type":"uint256","internalType":"uint256"}],"outputs":[{"name":"","type":"uint256","internalType":"uint256"}],"stateMutability":"view"},{"type":"function","name":"balanceOfBatch","inputs":[{"name":"accounts","type":"address[]","internalType":"address[]"},{"name":"ids","type":"uint256[]","internalType":"uint256[]"}],"outputs":[{"name":"","type":"uint256[]","internalType":"uint256[]"}],"stateMutability":"view"},{"type":"function","name":"burn","inputs":[{"name":"account","type":"address","internalType":"address"},{"name":"id","type":"uint256","internalType":"uint256"},{"name":"value","type":"uint256","internalType":"uint256"}],"outputs":[],"stateMutability":"nonpayable"},{"type":"function","name":"burnBatch","inputs":[{"name":"account","type":"address","internalType":"address"},{"name":"ids","type":"uint256[]","internalType":"uint256[]"},{"name":"values","type":"uint256[]","internalType":"uint256[]"}],"outputs":[],"stateMutability":"nonpayable"},{"type":"function","name":"buyInvoiceTokens","inputs":[{"name":"id","type":"uint256","internalType":"uint256"},{"name":"quantity","type":"uint256","internalType":"uint256"}],"outputs":[],"stateMutability":"nonpayable"},{"type":"function","name":"claimProfitFromMaturedInvoice","inputs":[{"name":"id","type":"uint256","internalType":"uint256"},{"name":"quantity","type":"uint256","internalType":"uint256"}],"outputs":[],"stateMutability":"nonpayable"},{"type":"function","name":"createInvoice","inputs":[{"name":"loanAmount","type":"uint256","internalType":"uint256"},{"name":"invoiceValue","type":"uint256","internalType":"uint256"},{"name":"unitValue","type":"uint256","internalType":"uint256"},{"name":"campaignDuration","type":"uint256","internalType":"uint256"},{"name":"maturityDate","type":"uint256","internalType":"uint256"},{"name":"data","type":"bytes","internalType":"bytes"}],"outputs":[{"name":"id","type":"uint256","internalType":"uint256"}],"stateMutability":"nonpayable"},{"type":"function","name":"fulfillInvoice","inputs":[{"name":"id","type":"uint256","internalType":"uint256"}],"outputs":[],"stateMutability":"nonpayable"},{"type":"function","name":"getInvoiceOwner","inputs":[{"name":"id","type":"uint256","internalType":"uint256"}],"outputs":[{"name":"","type":"address","internalType":"address"}],"stateMutability":"view"},{"type":"function","name":"getRoleAdmin","inputs":[{"name":"role","type":"bytes32","internalType":"bytes32"}],"outputs":[{"name":"","type":"bytes32","internalType":"bytes32"}],"stateMutability":"view"},{"type":"function","name":"grantRole","inputs":[{"name":"role","type":"bytes32","internalType":"bytes32"},{"name":"account","type":"address","internalType":"address"}],"outputs":[],"stateMutability":"nonpayable"},{"type":"function","name":"hasRole","inputs":[{"name":"role","type":"bytes32","internalType":"bytes32"},{"name":"account","type":"address","internalType":"address"}],"outputs":[{"name":"","type":"bool","internalType":"bool"}],"stateMutability":"view"},{"type":"function","name":"idToInvoiceDetails","inputs":[{"name":"","type":"uint256","internalType":"uint256"}],"outputs":[{"name":"loanAmount","type":"uint256","internalType":"uint256"},{"name":"invoiceValue","type":"uint256","internalType":"uint256"},{"name":"unitValue","type":"uint256","internalType":"uint256"},{"name":"createdAt","type":"uint256","internalType":"uint256"},{"name":"createdBy","type":"address","internalType":"address"},{"name":"campaignDuration","type":"uint256","internalType":"uint256"},{"name":"campaignEndTime","type":"uint256","internalType":"uint256"},{"name":"maturityDate","type":"uint256","internalType":"uint256"},{"name":"tokenSupply","type":"uint256","internalType":"uint256"},{"name":"availableSupply","type":"uint256","internalType":"uint256"},{"name":"isFulfilled","type":"bool","internalType":"bool"},{"name":"data","type":"bytes","internalType":"bytes"}],"stateMutability":"view"},{"type":"function","name":"idToOwner","inputs":[{"name":"","type":"uint256","internalType":"uint256"}],"outputs":[{"name":"","type":"address","internalType":"address"}],"stateMutability":"view"},{"type":"function","name":"initialize","inputs":[{"name":"admin","type":"address","internalType":"address"},{"name":"_usdc","type":"address","internalType":"address"},{"name":"kyc","type":"address","internalType":"address"}],"outputs":[],"stateMutability":"nonpayable"},{"type":"function","name":"isApprovedForAll","inputs":[{"name":"account","type":"address","internalType":"address"},{"name":"operator","type":"address","internalType":"address"}],"outputs":[{"name":"","type":"bool","internalType":"bool"}],"stateMutability":"view"},{"type":"function","name":"nonce","inputs":[],"outputs":[{"name":"","type":"uint256","internalType":"uint256"}],"stateMutability":"view"},{"type":"function","name":"onERC1155BatchReceived","inputs":[{"name":"","type":"address","internalType":"address"},{"name":"","type":"address","internalType":"address"},{"name":"","type":"uint256[]","internalType":"uint256[]"},{"name":"","type":"uint256[]","internalType":"uint256[]"},{"name":"","type":"bytes","internalType":"bytes"}],"outputs":[{"name":"","type":"bytes4","internalType":"bytes4"}],"stateMutability":"pure"},{"type":"function","name":"onERC1155Received","inputs":[{"name":"","type":"address","internalType":"address"},{"name":"","type":"address","internalType":"address"},{"name":"","type":"uint256","internalType":"uint256"},{"name":"","type":"uint256","internalType":"uint256"},{"name":"","type":"bytes","internalType":"bytes"}],"outputs":[{"name":"","type":"bytes4","internalType":"bytes4"}],"stateMutability":"pure"},{"type":"function","name":"ownerToIds","inputs":[{"name":"","type":"address","internalType":"address"},{"name":"","type":"uint256","internalType":"uint256"}],"outputs":[{"name":"","type":"uint256","internalType":"uint256"}],"stateMutability":"view"},{"type":"function","name":"proxiableUUID","inputs":[],"outputs":[{"name":"","type":"bytes32","internalType":"bytes32"}],"stateMutability":"view"},{"type":"function","name":"renounceRole","inputs":[{"name":"role","type":"bytes32","internalType":"bytes32"},{"name":"callerConfirmation","type":"address","internalType":"address"}],"outputs":[],"stateMutability":"nonpayable"},{"type":"function","name":"revokeRole","inputs":[{"name":"role","type":"bytes32","internalType":"bytes32"},{"name":"account","type":"address","internalType":"address"}],"outputs":[],"stateMutability":"nonpayable"},{"type":"function","name":"safeBatchTransferFrom","inputs":[{"name":"from","type":"address","internalType":"address"},{"name":"to","type":"address","internalType":"address"},{"name":"ids","type":"uint256[]","internalType":"uint256[]"},{"name":"values","type":"uint256[]","internalType":"uint256[]"},{"name":"data","type":"bytes","internalType":"bytes"}],"outputs":[],"stateMutability":"nonpayable"},{"type":"function","name":"safeTransferFrom","inputs":[{"name":"from","type":"address","internalType":"address"},{"name":"to","type":"address","internalType":"address"},{"name":"id","type":"uint256","internalType":"uint256"},{"name":"value","type":"uint256","internalType":"uint256"},{"name":"data","type":"bytes","internalType":"bytes"}],"outputs":[],"stateMutability":"nonpayable"},{"type":"function","name":"setApprovalForAll","inputs":[{"name":"operator","type":"address","internalType":"address"},{"name":"approved","type":"bool","internalType":"bool"}],"outputs":[],"stateMutability":"nonpayable"},{"type":"function","name":"setTransferHook","inputs":[{"name":"hook","type":"address","internalType":"address"}],"outputs":[],"stateMutability":"nonpayable"},{"type":"function","name":"supportsInterface","inputs":[{"name":"interfaceId","type":"bytes4","internalType":"bytes4"}],"outputs":[{"name":"","type":"bool","internalType":"bool"}],"stateMutability":"view"},{"type":"function","name":"transferHook","inputs":[],"outputs":[{"name":"","type":"address","internalType":"contract ITransferHook1155"}],"stateMutability":"view"},{"type":"function","name":"upgradeToAndCall","inputs":[{"name":"newImplementation","type":"address","internalType":"address"},{"name":"data","type":"bytes","internalType":"bytes"}],"outputs":[],"stateMutability":"payable"},{"type":"function","name":"uri","inputs":[{"name":"","type":"uint256","internalType":"uint256"}],"outputs":[{"name":"","type":"string","internalType":"string"}],"stateMutability":"view"},{"type":"function","name":"usdc","inputs":[],"outputs":[{"name":"","type":"address","internalType":"contract IUSDC"}],"stateMutability":"view"},{"type":"function","name":"withdrawInvoiceLoan","inputs":[{"name":"id","type":"uint256","internalType":"uint256"}],"outputs":[],"stateMutability":"nonpayable"},{"type":"event","name":"ApprovalForAll","inputs":[{"name":"account","type":"address","indexed":true,"internalType":"address"},{"name":"operator","type":"address","indexed":true,"internalType":"address"},{"name":"approved","type":"bool","indexed":false,"internalType":"bool"}],"anonymous":false},{"type":"event","name":"Initialized","inputs":[{"name":"version","type":"uint64","indexed":false,"internalType":"uint64"}],"anonymous":false},{"type":"event","name":"InvoiceBurned","inputs":[{"name":"from","type":"address","indexed":true,"internalType":"address"},{"name":"id","type":"uint256","indexed":true,"internalType":"uint256"},{"name":"amount","type":"uint256","indexed":false,"internalType":"uint256"}],"anonymous":false},{"type":"event","name":"InvoiceFullfilled","inputs":[{"name":"createdBy","type":"address","indexed":true,"internalType":"address"},{"name":"id","type":"uint256","indexed":true,"internalType":"uint256"},{"name":"amount","type":"uint256","indexed":false,"internalType":"uint256"}],"anonymous":false},{"type":"event","name":"InvoiceMinted","inputs":[{"name":"createdBy","type":"address","indexed":true,"internalType":"address"},{"name":"id","type":"uint256","indexed":true,"internalType":"uint256"},{"name":"amount","type":"uint256","indexed":false,"internalType":"uint256"},{"name":"metadataURI","type":"string","indexed":false,"internalType":"string"}],"anonymous":false},{"type":"event","name":"InvoiceProfitClaimed","inputs":[{"name":"claimer","type":"address","indexed":true,"internalType":"address"},{"name":"id","type":"uint256","indexed":true,"internalType":"uint256"},{"name":"amount","type":"uint256","indexed":false,"internalType":"uint256"}],"anonymous":false},{"type":"event","name":"InvoiceTokensBought","inputs":[{"name":"buyer","type":"address","indexed":true,"internalType":"address"},{"name":"id","type":"uint256","indexed":true,"internalType":"uint256"},{"name":"quantity","type":"uint256","indexed":false,"internalType":"uint256"}],"anonymous":false},{"type":"event","name":"InvoiceWithdrawn","inputs":[{"name":"createdBy","type":"address","indexed":true,"internalType":"address"},{"name":"id","type":"uint256","indexed":true,"internalType":"uint256"},{"name":"amount","type":"uint256","indexed":false,"internalType":"uint256"}],"anonymous":false},{"type":"event","name":"RoleAdminChanged","inputs":[{"name":"role","type":"bytes32","indexed":true,"internalType":"bytes32"},{"name":"previousAdminRole","type":"bytes32","indexed":true,"internalType":"bytes32"},{"name":"newAdminRole","type":"bytes32","indexed":true,"internalType":"bytes32"}],"anonymous":false},{"type":"event","name":"RoleGranted","inputs":[{"name":"role","type":"bytes32","indexed":true,"internalType":"bytes32"},{"name":"account","type":"address","indexed":true,"internalType":"address"},{"name":"sender","type":"address","indexed":true,"internalType":"address"}],"anonymous":false},{"type":"event","name":"RoleRevoked","inputs":[{"name":"role","type":"bytes32","indexed":true,"internalType":"bytes32"},{"name":"account","type":"address","indexed":true,"internalType":"address"},{"name":"sender","type":"address","indexed":true,"internalType":"address"}],"anonymous":false},{"type":"event","name":"TransferBatch","inputs":[{"name":"operator","type":"address","indexed":true,"internalType":"address"},{"name":"from","type":"address","indexed":true,"internalType":"address"},{"name":"to","type":"address","indexed":true,"internalType":"address"},{"name":"ids","type":"uint256[]","indexed":false,"internalType":"uint256[]"},{"name":"values","type":"uint256[]","indexed":false,"internalType":"uint256[]"}],"anonymous":false},{"type":"event","name":"TransferHookSet","inputs":[{"name":"oldHook","type":"address","indexed":true,"internalType":"address"},{"name":"newHook","type":"address","indexed":true,"internalType":"address"},{"name":"setter","type":"address","indexed":true,"internalType":"address"}],"anonymous":false},{"type":"event","name":"TransferSingle","inputs":[{"name":"operator","type":"address","indexed":true,"internalType":"address"},{"name":"from","type":"address","indexed":true,"internalType":"address"},{"name":"to","type":"address","indexed":true,"internalType":"address"},{"name":"id","type":"uint256","indexed":false,"internalType":"uint256"},{"name":"value","type":"uint256","indexed":false,"internalType":"uint256"}],"anonymous":false},{"type":"event","name":"URI","inputs":[{"name":"value","type":"string","indexed":false,"internalType":"string"},{"name":"id","type":"uint256","indexed":true,"internalType":"uint256"}],"anonymous":false},{"type":"event","name":"Upgraded","inputs":[{"name":"implementation","type":"address","indexed":true,"internalType":"address"}],"anonymous":false},{"type":"error","name":"AccessControlBadConfirmation","inputs":[]},{"type":"error","name":"AccessControlUnauthorizedAccount","inputs":[{"name":"account","type":"address","internalType":"address"},{"name":"neededRole","type":"bytes32","internalType":"bytes32"}]},{"type":"error","name":"AddressEmptyCode","inputs":[{"name":"target","type":"address","internalType":"address"}]},{"type":"error","name":"ERC1155InsufficientBalance","inputs":[{"name":"sender","type":"address","internalType":"address"},{"name":"balance","type":"uint256","internalType":"uint256"},{"name":"needed","type":"uint256","internalType":"uint256"},{"name":"tokenId","type":"uint256","internalType":"uint256"}]},{"type":"error","name":"ERC1155InvalidApprover","inputs":[{"name":"approver","type":"address","internalType":"address"}]},{"type":"error","name":"ERC1155InvalidArrayLength","inputs":[{"name":"idsLength","type":"uint256","internalType":"uint256"},{"name":"valuesLength","type":"uint256","internalType":"uint256"}]},{"type":"error","name":"ERC1155InvalidOperator","inputs":[{"name":"operator","type":"address","internalType":"address"}]},{"type":"error","name":"ERC1155InvalidReceiver","inputs":[{"name":"receiver","type":"address","internalType":"address"}]},{"type":"error","name":"ERC1155InvalidSender","inputs":[{"name":"sender","type":"address","internalType":"address"}]},{"type":"error","name":"ERC1155MissingApprovalForAll","inputs":[{"name":"operator","type":"address","internalType":"address"},{"name":"owner","type":"address","internalType":"address"}]},{"type":"error","name":"ERC1967InvalidImplementation","inputs":[{"name":"implementation","type":"address","internalType":"address"}]},{"type":"error","name":"ERC1967NonPayable","inputs":[]},{"type":"error","name":"FailedCall","inputs":[]},{"type":"error","name":"InvalidInitialization","inputs":[]},{"type":"error","name":"NotInitializing","inputs":[]},{"type":"error","name":"ReentrancyGuardReentrantCall","inputs":[]},{"type":"error","name":"SafeERC20FailedOperation","inputs":[{"name":"token","type":"address","internalType":"address"}]},{"type":"error","name":"UUPSUnauthorizedCallContext","inputs":[]},{"type":"error","name":"UUPSUnsupportedProxiableUUID","inputs":[{"name":"slot","type":"bytes32","internalType":"bytes32"}]}],"bytecode":{"object":"0x60a0806040523460295730608052613543908161002e8239608051818181610bb10152610cd90152f35b5f80fdfe60806040526004361015610011575f80fd5b5f3560e01c8062fdd58e1461025e57806301ffc9a71461025957806305095c0c146102545780630e89341c1461024f5780631b8bf1191461024a578063227a6e6314610245578063248a9ca314610240578063282c51f31461023b5780632eb2c2d6146102365780632f2ff15d1461023157806336568abe1461022c5780633e413bee146102275780634e1273f4146102225780634f1ef2861461021d57806352d1902d146102185780635ea27553146102135780636b20c4541461020e5780637208b190146101dc5780637f2dc61c1461020957806382bc7bc91461020457806391d14854146101ff578063a217fddf146101fa578063a22cb465146101f5578063a3b6619f146101f0578063ad3cb1cc146101eb578063affed0e0146101e6578063bc197c81146101e1578063bfc206ed146101dc578063c0c53b8b146101d7578063d547741f146101d2578063e985e9c5146101cd578063eb829d3c146101c8578063ebafe1d0146101c3578063f23a6e61146101be578063f242432a146101b9578063f5298aca146101b45763feb3d3d6146101af575f80fd5b611b60565b611a87565b611a35565b6119df565b611960565b6115cd565b61159c565b611552565b6113da565b610f11565b611315565b61129b565b611254565b611170565b6110c1565b61109d565b611042565b61101a565b610f43565b610e48565b610d1e565b610cc7565b610b73565b610ab4565b610a48565b610a04565b6109b5565b610929565b6107ce565b61078f565b610755565b61062c565b610539565b6103c0565b610337565b6102bd565b600435906001600160a01b038216820361027957565b5f80fd5b602435906001600160a01b038216820361027957565b604435906001600160a01b038216820361027957565b35906001600160a01b038216820361027957565b3461027957604036600319011261027957602061031c6102db610263565b6024355f527f88be536d5240c274a3b1d3a1be54482fd9caa294f08c62a7cde569f49a3c4500835260405f209060018060a01b03165f5260205260405f2090565b54604051908152f35b6001600160e01b031981160361027957565b346102795760203660031901126102795760043561035481610325565b63ffffffff60e01b16637965db0b60e01b811490811561037d575b506040519015158152602090f35b636cdb3d1360e11b8114915081156103af575b811561039e575b505f61036f565b6301ffc9a760e01b1490505f610397565b6303a24d0760e21b81149150610390565b34610279576020366003190112610279576004356103fc6103f6600a6103ee845f52600560205260405f2090565b015460ff1690565b15611bff565b61041b6009610413835f52600560205260405f2090565b015415611c4b565b60015461045c9061043c906001600160a01b03165b6001600160a01b031690565b6001610450845f52600560205260405f2090565b01549030903390612692565b610481600a610473835f52600560205260405f2090565b01805460ff19166001179055565b6104a66004610498835f52600560205260405f2090565b01546001600160a01b031690565b7f3d05a44cf6321ad33b053fa97923e6d6616bc1b4e613f30a085c04d4542c38106104fc60016104de855f52600560205260405f2090565b01546040519081526001600160a01b03909316929081906020820190565b0390a3005b805180835260209291819084018484015e5f828201840152601f01601f1916010190565b906020610536928181520190610501565b90565b34610279576020366003190112610279576040515f5f5160206134ee5f395f51905f525461056681611829565b8084529060018116908115610608575060011461059e575b61059a8361058e8185038261081c565b60405191829182610525565b0390f35b5f5160206134ee5f395f51905f525f9081527ff429cb5e2ec84cbb765e76b31964a56ccde03e7a6122d6cc4afb19edc55edeed939250905b8082106105ee5750909150810160200161058e61057e565b9192600181602092548385880101520191019092916105d6565b60ff191660208086019190915291151560051b8401909101915061058e905061057e565b34610279576020366003190112610279576004356106616006610657835f52600560205260405f2090565b0154421015611c97565b61068b61067b6004610498845f52600560205260405f2090565b6001600160a01b03163314611ce3565b6106a26009610413835f52600560205260405f2090565b6001546106eb906106bb906001600160a01b0316610430565b6106d26004610498855f52600560205260405f2090565b6106e4845f52600560205260405f2090565b54916126db565b6107026004610498835f52600560205260405f2090565b7fa1cb6c7ac6fa0c1ab25da253ab69c36e14e84ba783095da6facd50ec597235466104fc610738845f52600560205260405f2090565b546040519081526001600160a01b03909316929081906020820190565b34610279575f3660031901126102795760206040517f149940578aee69536101ee3e806c7e5f4e3ebc5143942728bd7e88b67c1965758152f35b346102795760203660031901126102795760206107c66004355f525f5160206134ae5f395f51905f52602052600160405f20015490565b604051908152f35b34610279575f3660031901126102795760206040517f3c11d16cbaffd01df69ce1c404f6340ee057498f5f00246190ea54220576a8488152f35b634e487b7160e01b5f52604160045260245ffd5b90601f801991011681019081106001600160401b0382111761083d57604052565b610808565b604051906108526101808361081c565b565b6001600160401b03811161083d5760051b60200190565b9080601f8301121561027957813561088281610854565b92610890604051948561081c565b81845260208085019260051b82010192831161027957602001905b8282106108b85750505090565b81358152602091820191016108ab565b6001600160401b03811161083d57601f01601f191660200190565b81601f82011215610279578035906108fa826108c8565b92610908604051948561081c565b8284526020838301011161027957815f926020809301838601378301015290565b346102795760a036600319011261027957610942610263565b61094a61027d565b906044356001600160401b0381116102795761096a90369060040161086b565b6064356001600160401b0381116102795761098990369060040161086b565b90608435936001600160401b038511610279576109ad6109b39536906004016108e3565b93611d2f565b005b34610279576040366003190112610279576109b36004356109d461027d565b906109ff6109fa825f525f5160206134ae5f395f51905f52602052600160405f20015490565b6127d4565b612a38565b3461027957604036600319011261027957600435610a2061027d565b336001600160a01b03821603610a39576109b391612acd565b63334bd91960e11b5f5260045ffd5b34610279575f366003190112610279576001546040516001600160a01b039091168152602090f35b90602080835192838152019201905f5b818110610a8d5750505090565b8251845260209384019390920191600101610a80565b906020610536928181520190610a70565b34610279576040366003190112610279576004356001600160401b038111610279573660238201121561027957806004013590610af082610854565b91610afe604051938461081c565b8083526024602084019160051b8301019136831161027957602401905b828210610b5b57836024356001600160401b0381116102795761059a91610b49610b4f92369060040161086b565b90611da7565b60405191829182610aa3565b60208091610b68846102a9565b815201910190610b1b565b604036600319011261027957610b87610263565b6024356001600160401b03811161027957610ba69036906004016108e3565b906001600160a01b037f000000000000000000000000000000000000000000000000000000000000000016308114908115610ca5575b50610c9657610be9612716565b6040516352d1902d60e01b8152916020836004816001600160a01b0386165afa5f9381610c65575b50610c3257634c9c8ce360e01b5f526001600160a01b03821660045260245ffd5b905f51602061348e5f395f51905f528303610c51576109b392506130a4565b632a87526960e21b5f52600483905260245ffd5b610c8891945060203d602011610c8f575b610c80818361081c565b810190612b6d565b925f610c11565b503d610c76565b63703e46dd60e11b5f5260045ffd5b5f51602061348e5f395f51905f52546001600160a01b0316141590505f610bdc565b34610279575f366003190112610279577f00000000000000000000000000000000000000000000000000000000000000006001600160a01b03163003610c965760206040515f51602061348e5f395f51905f528152f35b3461027957604036600319011261027957600435602435610d566006610d4c845f52600560205260405f2090565b0154421115611e3c565b610d61811515611e81565b610d82816009610d79855f52600560205260405f2090565b01541015611ecd565b610dde610dc0610da4610d9d855f52600560205260405f2090565b5484611f2d565b6008610db8865f52600560205260405f2090565b015490611f59565b600154610dd5906001600160a01b0316610430565b30903390612692565b610df2610de9611240565b82843330612616565b6009610e06835f52600560205260405f2090565b01610e12828254611f68565b905560405190815233907f864bedb3c54199424d4a20a6a8eadc7a145cbc4f008b010cacf6ac1f88336dfe9080602081016104fc565b3461027957606036600319011261027957610e61610263565b6024356001600160401b03811161027957610e8090369060040161086b565b906044356001600160401b03811161027957610ea090369060040161086b565b6001600160a01b0382163381141580610f00575b610eea5715610ed8576109b39260405192610ed060208561081c565b5f8452612da6565b626a0d4560e21b5f525f60045260245ffd5b63711bec9160e11b5f523360045260245260445ffd5b50610f0b33846121be565b15610eb4565b34610279576020366003190112610279576004355f526003602052602060018060a01b0360405f205416604051908152f35b3461027957602036600319011261027957610f5c610263565b610f64612765565b6001600160a01b03168015610fd557600654610f88906001600160a01b0316610430565b600680546001600160a01b0319166001600160a01b0384161790559033916001600160a01b03167f6e48c80b8f2c2d5a311ad17299545abd442e88eda21ea65eb891210edf60559b5f80a4005b60405162461bcd60e51b815260206004820152601e60248201527f496e766f696365546f6b656e313135353a207a65726f206164647265737300006044820152606490fd5b34610279575f366003190112610279576006546040516001600160a01b039091168152602090f35b3461027957604036600319011261027957602060ff61109160043561106561027d565b905f525f5160206134ae5f395f51905f52845260405f209060018060a01b03165f5260205260405f2090565b54166040519015158152f35b34610279575f3660031901126102795760206040515f8152f35b8015150361027957565b34610279576040366003190112610279576110da610263565b6024356110e6816110b7565b6001600160a01b03821691821561115e578161111d61112e9261110833611afa565b9060018060a01b03165f5260205260405f2090565b9060ff801983541691151516179055565b60405190151581527f17307eab39ab6107e8899845ad3d59bd9653f200f220920489ca2b5937696c3160203392a3005b62ced3e160e81b5f525f60045260245ffd5b3461027957604036600319011261027957600435602435815f5260056020526111a7600160ff600a60405f20015416151514611f75565b6111c0816111b833611108866113ad565b541015611fb9565b6111ea6111e260026111da855f52600560205260405f2090565b015483611f2d565b918333612b7c565b60015461120c9082903390611207906001600160a01b0316610430565b6126db565b60405190815233907f083d24781e510b8b11bdc682253e8ead3810fc003dba7ee8fe408642321342569080602081016104fc565b6040519061124f60208361081c565b5f8252565b34610279575f3660031901126102795761059a60405161127560408261081c565b60058152640352e302e360dc1b6020820152604051918291602083526020830190610501565b34610279575f366003190112610279576020600254604051908152f35b9181601f84011215610279578235916001600160401b038311610279576020808501948460051b01011161027957565b9181601f84011215610279578235916001600160401b038311610279576020838186019501011161027957565b346102795760a03660031901126102795761132e610263565b5061133761027d565b506044356001600160401b038111610279576113579036906004016112b8565b50506064356001600160401b038111610279576113789036906004016112b8565b50506084356001600160401b038111610279576113999036906004016112e8565b505060405163bc197c8160e01b8152602090f35b5f527f88be536d5240c274a3b1d3a1be54482fd9caa294f08c62a7cde569f49a3c450060205260405f2090565b34610279576060366003190112610279576113f3610263565b6113fb61027d565b90611404610293565b5f5160206134ce5f395f51905f5254926001600160401b0361143560ff604087901c1615956001600160401b031690565b168015908161154a575b6001149081611540575b159081611537575b5061152857611494928461148b60016001600160401b03195f5160206134ce5f395f51905f525416175f5160206134ce5f395f51905f5255565b6114f357611ff9565b61149a57005b6114c460ff60401b195f5160206134ce5f395f51905f5254165f5160206134ce5f395f51905f5255565b604051600181527fc7f505b2f371ae2175ee4913f4499e1f2633a7b5936321eed1cdaeb6115181d290602090a1005b611523600160401b60ff60401b195f5160206134ce5f395f51905f525416175f5160206134ce5f395f51905f5255565b611ff9565b63f92ee8a960e01b5f5260045ffd5b9050155f611451565b303b159150611449565b85915061143f565b34610279576040366003190112610279576109b360043561157161027d565b906115976109fa825f525f5160206134ae5f395f51905f52602052600160405f20015490565b612acd565b3461027957604036600319011261027957602060ff6110916115bc610263565b6111086115c761027d565b91611afa565b346102795760c03660031901126102795760643560843560043560443560243560a4356001600160401b0381116102795761160c9036906004016108e3565b81151594611619866121d2565b5f5461162d906001600160a01b0316610430565b604051631466d01960e01b81523360048201529390602090859060249082905afa978815611824576116a96117399861167461059a9b611741985f916117f5575b50612235565b611687611681898661228c565b15612296565b611693898510156122f7565b88151590816117eb575b816117e3575b50612369565b6116b38683611f59565b956116be42836123b5565b926116c7610842565b9889526020890152604088015242606088015233608088015260a087015260c086015260e085015282610100850152826101208501525f6101408501528061016085015260025494859461172261171d876123c2565b600255565b611734865f52600560205260405f2090565b61252c565b828430612bfd565b61177633611757845f52600360205260405f2090565b80546001600160a01b0319166001600160a01b03909216919091179055565b335f90815260046020526040902061178f9083906125e2565b7f5a27a2aee183bcd538945c27de908baf1eb38299f31367ad4e7a0905458d0cc2604051806117d03394826060918152604060208201525f60408201520190565b0390a36040519081529081906020820190565b90505f6116a3565b881515915061169d565b611817915060203d60201161181d575b61180f818361081c565b810190612215565b5f61166e565b503d611805565b61222a565b90600182811c92168015611857575b602083101461184357565b634e487b7160e01b5f52602260045260245ffd5b91607f1691611838565b9060405191825f82549261187484611829565b80845293600181169081156118dd5750600114611899575b506108529250038361081c565b90505f9291925260205f20905f915b8183106118c1575050906020610852928201015f61188c565b60209193508060019154838589010152019101909184926118a8565b90506020925061085294915060ff191682840152151560051b8201015f61188c565b9895926105369c9b9895926101809b9895928b5260208b015260408a0152606089015260018060a01b0316608088015260a087015260c086015260e08501526101008401526101208301521515610140820152816101608201520190610501565b34610279576020366003190112610279576004355f52600560205260405f20805461059a600183015492600281015490600381015460018060a01b03600483015416600583015460068401546007850154916008860154936009870154956119d2600b60ff600a8b0154169901611861565b986040519c8d9c8d6118ff565b346102795760a0366003190112610279576119f8610263565b50611a0161027d565b506084356001600160401b03811161027957611a219036906004016112e8565b505060405163f23a6e6160e01b8152602090f35b346102795760a036600319011261027957611a4e610263565b611a5661027d565b9060443560643590608435936001600160401b03851161027957611a816109b39536906004016108e3565b93612616565b3461027957606036600319011261027957611aa0610263565b6001600160a01b0381169060443590602435903384141580611ae2575b611acb576109b39350612b7c565b8363711bec9160e11b5f523360045260245260445ffd5b5060ff611af23361110884611afa565b541615611abd565b6001600160a01b03165f9081527f88be536d5240c274a3b1d3a1be54482fd9caa294f08c62a7cde569f49a3c45016020526040902090565b634e487b7160e01b5f52603260045260245ffd5b8054821015611b5b575f5260205f2001905f90565b611b32565b3461027957604036600319011261027957611b79610263565b6001600160a01b03165f9081526004602052604090208054602435919082101561027957602091611ba991611b46565b90549060031b1c604051908152f35b611bfb915f527f88be536d5240c274a3b1d3a1be54482fd9caa294f08c62a7cde569f49a3c450060205260405f209060018060a01b03165f5260205260405f2090565b5490565b15611c0657565b60405162461bcd60e51b815260206004820152601960248201527f696e766f69636520616c72656164792066756c66696c6c6564000000000000006044820152606490fd5b15611c5257565b60405162461bcd60e51b815260206004820152601960248201527f696e766f696365206e6f742079657420626f75676874207570000000000000006044820152606490fd5b15611c9e57565b60405162461bcd60e51b815260206004820152601a60248201527f63616d706169676e206475726174696f6e206e6f74206f7665720000000000006044820152606490fd5b15611cea57565b60405162461bcd60e51b815260206004820152601e60248201527f6e6f74207468652063726561746f72206f662074686520696e766f69636500006044820152606490fd5b939291906001600160a01b0385163381141580611d7b575b610eea576001600160a01b03821615611d685715610ed85761085294612ee6565b632bfa23e760e11b5f525f60045260245ffd5b5060ff611d8b3361110889611afa565b541615611d47565b8051821015611b5b5760209160051b010190565b91909180518351808203611e27575050805190611dc382610854565b91611dd1604051938461081c565b808352611de0601f1991610854565b013660208401375f5b8151811015611e205780611e0f60019260051b6020808287010151918901015190611bb8565b611e198286611d93565b5201611de9565b5090925050565b635b05999160e01b5f5260045260245260445ffd5b15611e4357565b60405162461bcd60e51b815260206004820152601660248201527531b0b6b830b4b3b710323ab930ba34b7b71037bb32b960511b6044820152606490fd5b15611e8857565b60405162461bcd60e51b815260206004820152601f60248201527f7175616e74697479206d7573742062652067726561746572207468616e2030006044820152606490fd5b15611ed457565b60405162461bcd60e51b815260206004820152601b60248201527f6e6f7420656e6f75676820617661696c61626c6520737570706c7900000000006044820152606490fd5b634e487b7160e01b5f52601160045260245ffd5b81810292918115918404141715611f4057565b611f19565b634e487b7160e01b5f52601260045260245ffd5b8115611f63570490565b611f45565b91908203918211611f4057565b15611f7c57565b60405162461bcd60e51b81526020600482015260156024820152741a5b9d9bda58d9481b9bdd08199d5b199a5b1b1959605a1b6044820152606490fd5b15611fc057565b60405162461bcd60e51b81526020600482015260116024820152706e6f7420656e6f75676820746f6b656e7360781b6044820152606490fd5b600180546001600160a01b0319166001600160a01b03909316929092179091556040519291602061202a818661081c565b5f8552612035613143565b61203d613143565b8451906001600160401b03821161083d5761206e826120695f5160206134ee5f395f51905f5254611829565b6123e6565b602090601f83116001146121175750816120f093926120a79261210997985f9261210c575b50508160011b915f199060031b1c19161790565b5f5160206134ee5f395f51905f52555b6120bf613143565b6120c7612bc7565b6120cf613143565b5f80546001600160a01b0319166001600160a01b0392909216919091179055565b6120f98161281a565b50612103816128b6565b50612977565b50565b015190505f80612093565b5f5160206134ee5f395f51905f525f52601f198316969091907ff429cb5e2ec84cbb765e76b31964a56ccde03e7a6122d6cc4afb19edc55edeed925f905b8982106121a65750509183916001936120f09695612109999a1061218e575b505050811b015f5160206134ee5f395f51905f52556120b7565b01515f1960f88460031b161c191690555f8080612174565b80600185968294968601518155019501930190612155565b60ff916111086121cd92611afa565b541690565b156121d957565b60405162461bcd60e51b8152602060048201526014602482015273125b9d9bda58d94e881e995c9bc8185b5bdd5b9d60621b6044820152606490fd5b908160209103126102795751610536816110b7565b6040513d5f823e3d90fd5b1561223c57565b60405162461bcd60e51b815260206004820152602260248201527f55736572206d7573742062652061207265676973746572656420627573696e65604482015261737360f01b6064820152608490fd5b8115611f63570690565b1561229d57565b60405162461bcd60e51b815260206004820152602c60248201527f756e69742076616c7565206d757374206265206120666163746f72206f66206960448201526b6e766f6963652076616c756560a01b6064820152608490fd5b156122fe57565b60405162461bcd60e51b815260206004820152603a60248201527f696e766f6963652076616c7565206d757374206265206772656174657220746860448201527f616e206f7220657175616c20746f206c6f616e20616d6f756e740000000000006064820152608490fd5b1561237057565b60405162461bcd60e51b815260206004820152601760248201527f6d757374206265206e6f6e2d7a65726f2076616c7565730000000000000000006044820152606490fd5b91908201809211611f4057565b5f198114611f405760010190565b8181106123db575050565b5f81556001016123d0565b90601f82116123f3575050565b610852915f5160206134ee5f395f51905f525f5260205f20906020601f840160051c8301931061242b575b601f0160051c01906123d0565b909150819061241e565b9190601f811161244457505050565b610852925f5260205f20906020601f840160051c8301931061242b57601f0160051c01906123d0565b91909182516001600160401b03811161083d576124948161248e8454611829565b84612435565b6020601f82116001146124c75781906124c39394955f9261210c5750508160011b915f199060031b1c19161790565b9055565b601f198216906124da845f5260205f2090565b915f5b818110612514575095836001959697106124fc575b505050811b019055565b01515f1960f88460031b161c191690555f80806124f2565b9192602060018192868b0151815501940192016124dd565b8151815560208201516001820155604082015160028201556060820151600382015560808201516004820180546001600160a01b0319166001600160a01b0390921691909117905561085291600b906101609060a0810151600585015560c0810151600685015560e08101516007850155610100810151600885015561012081015160098501556125d96125c4610140830151151590565b600a86019060ff801983541691151516179055565b0151910161246d565b8054600160401b81101561083d576125ff91600182018155611b46565b819291549060031b91821b915f19901b1916179055565b92939290916001600160a01b038216338114158061267a575b610eea576001600160a01b03841615611d685715610ed8576108529461267260405192600184526020840152604083019160018352606084015260808301604052565b929091612ee6565b5060ff61268a3361110886611afa565b54161561262f565b6040516323b872dd60e01b60208201526001600160a01b039283166024820152929091166044830152606480830193909352918152610852916126d660848361081c565b612d4e565b60405163a9059cbb60e01b60208201526001600160a01b039092166024830152604480830193909352918152610852916126d660648361081c565b335f9081527fb7db2dd08fcb62d0c9e08c51941cae53c267786a0b75803fb7960902fc8ef97d602052604090205460ff161561274e57565b63e2517d3f60e01b5f52336004525f60245260445ffd5b335f9081527f109697dc9535d22b393c7e0f915745fe79a843ee045311dd1ae56dc290e0f9a0602052604090205460ff161561279d57565b63e2517d3f60e01b5f52336004527f149940578aee69536101ee3e806c7e5f4e3ebc5143942728bd7e88b67c19657560245260445ffd5b5f8181525f5160206134ae5f395f51905f526020908152604080832033845290915290205460ff16156128045750565b63e2517d3f60e01b5f523360045260245260445ffd5b6001600160a01b0381165f9081527fb7db2dd08fcb62d0c9e08c51941cae53c267786a0b75803fb7960902fc8ef97d602052604090205460ff166128b1576001600160a01b03165f8181527fb7db2dd08fcb62d0c9e08c51941cae53c267786a0b75803fb7960902fc8ef97d60205260408120805460ff191660011790553391905f51602061346e5f395f51905f528180a4600190565b505f90565b6001600160a01b0381165f9081527ffcf1b2032b1187d9f2a29150c4a608b3b6f0bdf8dd007801f86a276af50cad92602052604090205460ff166128b1576001600160a01b0381165f9081527ffcf1b2032b1187d9f2a29150c4a608b3b6f0bdf8dd007801f86a276af50cad9260205260409020805460ff1916600117905533906001600160a01b03167f3c11d16cbaffd01df69ce1c404f6340ee057498f5f00246190ea54220576a8485f51602061346e5f395f51905f525f80a4600190565b6001600160a01b0381165f9081527f109697dc9535d22b393c7e0f915745fe79a843ee045311dd1ae56dc290e0f9a0602052604090205460ff166128b1576001600160a01b0381165f9081527f109697dc9535d22b393c7e0f915745fe79a843ee045311dd1ae56dc290e0f9a060205260409020805460ff1916600117905533906001600160a01b03167f149940578aee69536101ee3e806c7e5f4e3ebc5143942728bd7e88b67c1965755f51602061346e5f395f51905f525f80a4600190565b5f8181525f5160206134ae5f395f51905f52602090815260408083206001600160a01b038616845290915290205460ff16612ac7575f8181525f5160206134ae5f395f51905f52602090815260408083206001600160a01b03861684529091529020805460ff1916600117905533916001600160a01b0316905f51602061346e5f395f51905f525f80a4600190565b50505f90565b5f8181525f5160206134ae5f395f51905f52602090815260408083206001600160a01b038616845290915290205460ff1615612ac7575f8181525f5160206134ae5f395f51905f52602090815260408083206001600160a01b03861684529091529020805460ff1916905533916001600160a01b0316907ff6391f5c32d9c69d2a47ea670b442974b53935d1edc7fd64eb21e047a839171b5f80a4600190565b90816020910312610279575190565b906001600160a01b03821615610ed85761085292612bb760405192600184526020840152604083019160018352606084015260808301604052565b9060405192610ed060208561081c565b612bcf613143565b612bd7613143565b60017f9b779b17422d0df92223018b32b4d1fa46e071723d6817e2486d003becc55f0055565b6001600160a01b03811693929091908415611d6857612c3960405192600184526020840152604083019160018352606084015260808301604052565b928151845190818103612d395750505f5b8251811015612c87578060019160051b612c7f612c7787611108602080868b010151958c010151946113ad565b9182546123b5565b905501612c4a565b5092919360018251145f14612cfe576020828101518482015160408051928352928201525f9133917fc3d58168c5ae7397731d063d5bbf3d657854427343f4c083240f7aacaa2d0f629190a45b8051600103612cf3579060208061085295930151910151915f33613359565b610852935f3361322a565b5f6040517f4a39dc06d4c0dbc64b70af90fd698a233a518aa5d07e595d983b8c0526c8f7fb339180612d3188888361316e565b0390a4612cd4565b635b05999160e01b5f5260045260245260445ffd5b905f602091828151910182855af11561222a575f513d612d9d57506001600160a01b0381163b155b612d7d5750565b635274afe760e01b5f9081526001600160a01b0391909116600452602490fd5b60011415612d76565b9092508251825190818103612d395750506001600160a01b038116801515949093905f5b8251811015612e5d578060051b876020808387010151928801015190612df5575b5050600101612dca565b612e0286611108846113ad565b54818110612e2657866111086001959493612e1e9303936113ad565b55905f612deb565b6040516303dee4c560e01b81526001600160a01b038816600482015260248101919091526044810182905260648101839052608490fd5b5094505f9392915060018151148414612eb35760209081015191810151604080519384529183015233917fc3d58168c5ae7397731d063d5bbf3d657854427343f4c083240f7aacaa2d0f6291819081015b0390a4565b60405133927f4a39dc06d4c0dbc64b70af90fd698a233a518aa5d07e595d983b8c0526c8f7fb928291612eae918361316e565b9493929091938451825190818103612d395750506001600160a01b038681169586151595918516801515939192905f5b8451811015612fd7578060051b90898988602080868b010151958c01015192612f66575b93600194612f4c575b50505001612f16565b612f5c91611108612c77926113ad565b90555f8981612f43565b50509091612f778d611108836113ad565b54828110612fa0578291898f612f97600197968f950391611108856113ad565b55909450612f3a565b6040516303dee4c560e01b81526001600160a01b038f16600482015260248101919091526044810183905260648101829052608490fd5b5091989593929790965060018851145f1461306a5760208881015186820151604080519283529282015233917fc3d58168c5ae7397731d063d5bbf3d657854427343f4c083240f7aacaa2d0f6291a45b613033575b5050505050565b84516001036130595760208061304f9601519201519233613359565b5f8080808061302c565b6130659491923361322a565b61304f565b6040517f4a39dc06d4c0dbc64b70af90fd698a233a518aa5d07e595d983b8c0526c8f7fb33918061309c898d8361316e565b0390a4613027565b90813b15613122575f51602061348e5f395f51905f5280546001600160a01b0319166001600160a01b0384169081179091557fbc7cd75a20ee27fd9adebab32041f755214dbc6bffa90cc0225b39da2e5c2d3b5f80a280511561310a57612109916133f7565b50503461311357565b63b398979f60e01b5f5260045ffd5b50634c9c8ce360e01b5f9081526001600160a01b0391909116600452602490fd5b60ff5f5160206134ce5f395f51905f525460401c161561315f57565b631afcd79f60e31b5f5260045ffd5b909161318561053693604084526040840190610a70565b916020818403910152610a70565b90816020910312610279575161053681610325565b6001600160a01b0391821681529116602082015260a06040820181905261053694919391926131ed92916131df9190860190610a70565b908482036060860152610a70565b916080818403910152610501565b3d15613225573d9061320c826108c8565b9161321a604051938461081c565b82523d5f602084013e565b606090565b9091949293853b61323e575b505050505050565b60209361326091604051968795869563bc197c8160e01b8752600487016131a8565b03815f6001600160a01b0387165af15f91816132ef575b506132b157506132856131fb565b80519190826132aa57632bfa23e760e11b5f526001600160a01b03821660045260245ffd5b6020915001fd5b6001600160e01b0319166343e6837f60e01b016132d457505f8080808080613236565b632bfa23e760e11b5f526001600160a01b031660045260245ffd5b61331291925060203d602011613319575b61330a818361081c565b810190613193565b905f613277565b503d613300565b6001600160a01b039182168152911660208201526040810191909152606081019190915260a06080820181905261053692910190610501565b9091949293853b61336c57505050505050565b60209361338e91604051968795869563f23a6e6160e01b875260048701613320565b03815f6001600160a01b0387165af15f91816133d6575b506133b357506132856131fb565b6001600160e01b031916630dc5919f60e01b016132d457505f8080808080613236565b6133f091925060203d6020116133195761330a818361081c565b905f6133a5565b5f8061053693602081519101845af461340e6131fb565b9190613433575080511561342457602081519101fd5b63d6bda27560e01b5f5260045ffd5b81511580613464575b613444575090565b639996b31560e01b5f9081526001600160a01b0391909116600452602490fd5b50803b1561343c56fe2f8788117e7eff1d82e926ec794901d17c78024a50270940304540a733656f0d360894a13ba1a3210667c828492db98dca3e2076cc3735a920a3ca505d382bbc02dd7bc7dec4dceedda775e58dd541e08a116c6c53815c0bd028192f7b626800f0c57e16840df040f15088dc2f81fe391c3923bec73e23a9662efc9c229c6a0088be536d5240c274a3b1d3a1be54482fd9caa294f08c62a7cde569f49a3c4502a2646970667358221220cde2735169422cd1400da1b2d00f29f2f38e33cb849249b1ec2fc723e42f1a0b64736f6c634300081d0033","linkReferences":{}},"methodIdentifiers":{"BURNER_ROLE()":"282c51f3","DEFAULT_ADMIN_ROLE()":"a217fddf","HOOK_ADMIN_ROLE()":"227a6e63","UPGRADE_INTERFACE_VERSION()":"ad3cb1cc","balanceOf(address,uint256)":"00fdd58e","balanceOfBatch(address[],uint256[])":"4e1273f4","burn(address,uint256,uint256)":"f5298aca","burnBatch(address,uint256[],uint256[])":"6b20c454","buyInvoiceTokens(uint256,uint256)":"5ea27553","claimProfitFromMaturedInvoice(uint256,uint256)":"a3b6619f","createInvoice(uint256,uint256,uint256,uint256,uint256,bytes)":"eb829d3c","fulfillInvoice(uint256)":"05095c0c","getInvoiceOwner(uint256)":"7208b190","getRoleAdmin(bytes32)":"248a9ca3","grantRole(bytes32,address)":"2f2ff15d","hasRole(bytes32,address)":"91d14854","idToInvoiceDetails(uint256)":"ebafe1d0","idToOwner(uint256)":"bfc206ed","initialize(address,address,address)":"c0c53b8b","isApprovedForAll(address,address)":"e985e9c5","nonce()":"affed0e0","onERC1155BatchReceived(address,address,uint256[],uint256[],bytes)":"bc197c81","onERC1155Received(address,address,uint256,uint256,bytes)":"f23a6e61","ownerToIds(address,uint256)":"feb3d3d6","proxiableUUID()":"52d1902d","renounceRole(bytes32,address)":"36568abe","revokeRole(bytes32,address)":"d547741f","safeBatchTransferFrom(address,address,uint256[],uint256[],bytes)":"2eb2c2d6","safeTransferFrom(address,address,uint256,uint256,bytes)":"f242432a","setApprovalForAll(address,bool)":"a22cb465","setTransferHook(address)":"7f2dc61c","supportsInterface(bytes4)":"01ffc9a7","transferHook()":"82bc7bc9","upgradeToAndCall(address,bytes)":"4f1ef286","uri(uint256)":"0e89341c","usdc()":"3e413bee","withdrawInvoiceLoan(uint256)":"1b8bf119"},"id":53}