{"abi":[{"type":"function","name":"ADMIN_ROLE","inputs":[],"outputs":[{"name":"","type":"bytes32","internalType":"bytes32"}],"stateMutability":"view"},{"type":"function","name":"DEFAULT_ADMIN_ROLE","inputs":[],"outputs":[{"name":"","type":"bytes32","internalType":"bytes32"}],"stateMutability":"view"},{"type":"function","name":"UPGRADE_INTERFACE_VERSION","inputs":[],"outputs":[{"name":"","type":"string","internalType":"string"}],"stateMutability":"view"},{"type":"function","name":"getKYCStatus","inputs":[{"name":"user","type":"address","internalType":"address"}],"outputs":[{"name":"","type":"bool","internalType":"bool"}],"stateMutability":"view"},{"type":"function","name":"getRoleAdmin","inputs":[{"name":"role","type":"bytes32","internalType":"bytes32"}],"outputs":[{"name":"","type":"bytes32","internalType":"bytes32"}],"stateMutability":"view"},{"type":"function","name":"grantRole","inputs":[{"name":"role","type":"bytes32","internalType":"bytes32"},{"name":"account","type":"address","internalType":"address"}],"outputs":[],"stateMutability":"nonpayable"},{"type":"function","name":"hasRole","inputs":[{"name":"role","type":"bytes32","internalType":"bytes32"},{"name":"account","type":"address","internalType":"address"}],"outputs":[{"name":"","type":"bool","internalType":"bool"}],"stateMutability":"view"},{"type":"function","name":"initialize","inputs":[{"name":"admin","type":"address","internalType":"address"}],"outputs":[],"stateMutability":"nonpayable"},{"type":"function","name":"isBusiness","inputs":[{"name":"user","type":"address","internalType":"address"}],"outputs":[{"name":"","type":"bool","internalType":"bool"}],"stateMutability":"view"},{"type":"function","name":"isInvestor","inputs":[{"name":"user","type":"address","internalType":"address"}],"outputs":[{"name":"","type":"bool","internalType":"bool"}],"stateMutability":"view"},{"type":"function","name":"isKYCVerified","inputs":[{"name":"","type":"address","internalType":"address"}],"outputs":[{"name":"","type":"bool","internalType":"bool"}],"stateMutability":"view"},{"type":"function","name":"paused","inputs":[],"outputs":[{"name":"","type":"bool","internalType":"bool"}],"stateMutability":"view"},{"type":"function","name":"proxiableUUID","inputs":[],"outputs":[{"name":"","type":"bytes32","internalType":"bytes32"}],"stateMutability":"view"},{"type":"function","name":"registerBusiness","inputs":[],"outputs":[],"stateMutability":"nonpayable"},{"type":"function","name":"registerInvestor","inputs":[],"outputs":[],"stateMutability":"nonpayable"},{"type":"function","name":"registeredBusinesses","inputs":[{"name":"","type":"address","internalType":"address"}],"outputs":[{"name":"","type":"bool","internalType":"bool"}],"stateMutability":"view"},{"type":"function","name":"registeredInvestors","inputs":[{"name":"","type":"address","internalType":"address"}],"outputs":[{"name":"","type":"bool","internalType":"bool"}],"stateMutability":"view"},{"type":"function","name":"renounceRole","inputs":[{"name":"role","type":"bytes32","internalType":"bytes32"},{"name":"callerConfirmation","type":"address","internalType":"address"}],"outputs":[],"stateMutability":"nonpayable"},{"type":"function","name":"revokeRole","inputs":[{"name":"role","type":"bytes32","internalType":"bytes32"},{"name":"account","type":"address","internalType":"address"}],"outputs":[],"stateMutability":"nonpayable"},{"type":"function","name":"revokeUser","inputs":[{"name":"user","type":"address","internalType":"address"}],"outputs":[],"stateMutability":"nonpayable"},{"type":"function","name":"supportsInterface","inputs":[{"name":"interfaceId","type":"bytes4","internalType":"bytes4"}],"outputs":[{"name":"","type":"bool","internalType":"bool"}],"stateMutability":"view"},{"type":"function","name":"upgradeToAndCall","inputs":[{"name":"newImplementation","type":"address","internalType":"address"},{"name":"data","type":"bytes","internalType":"bytes"}],"outputs":[],"stateMutability":"payable"},{"type":"function","name":"verifyKYC","inputs":[{"name":"user","type":"address","internalType":"address"}],"outputs":[],"stateMutability":"nonpayable"},{"type":"event","name":"BusinessRegistered","inputs":[{"name":"user","type":"address","indexed":true,"internalType":"address"}],"anonymous":false},{"type":"event","name":"Initialized","inputs":[{"name":"version","type":"uint64","indexed":false,"internalType":"uint64"}],"anonymous":false},{"type":"event","name":"InvestorRegistered","inputs":[{"name":"user","type":"address","indexed":true,"internalType":"address"}],"anonymous":false},{"type":"event","name":"Paused","inputs":[{"name":"account","type":"address","indexed":false,"internalType":"address"}],"anonymous":false},{"type":"event","name":"RoleAdminChanged","inputs":[{"name":"role","type":"bytes32","indexed":true,"internalType":"bytes32"},{"name":"previousAdminRole","type":"bytes32","indexed":true,"internalType":"bytes32"},{"name":"newAdminRole","type":"bytes32","indexed":true,"internalType":"bytes32"}],"anonymous":false},{"type":"event","name":"RoleGranted","inputs":[{"name":"role","type":"bytes32","indexed":true,"internalType":"bytes32"},{"name":"account","type":"address","indexed":true,"internalType":"address"},{"name":"sender","type":"address","indexed":true,"internalType":"address"}],"anonymous":false},{"type":"event","name":"RoleRevoked","inputs":[{"name":"role","type":"bytes32","indexed":true,"internalType":"bytes32"},{"name":"account","type":"address","indexed":true,"internalType":"address"},{"name":"sender","type":"address","indexed":true,"internalType":"address"}],"anonymous":false},{"type":"event","name":"Unpaused","inputs":[{"name":"account","type":"address","indexed":false,"internalType":"address"}],"anonymous":false},{"type":"event","name":"Upgraded","inputs":[{"name":"implementation","type":"address","indexed":true,"internalType":"address"}],"anonymous":false},{"type":"error","name":"AccessControlBadConfirmation","inputs":[]},{"type":"error","name":"AccessControlUnauthorizedAccount","inputs":[{"name":"account","type":"address","internalType":"address"},{"name":"neededRole","type":"bytes32","internalType":"bytes32"}]},{"type":"error","name":"AddressEmptyCode","inputs":[{"name":"target","type":"address","internalType":"address"}]},{"type":"error","name":"ERC1967InvalidImplementation","inputs":[{"name":"implementation","type":"address","internalType":"address"}]},{"type":"error","name":"ERC1967NonPayable","inputs":[]},{"type":"error","name":"EnforcedPause","inputs":[]},{"type":"error","name":"ExpectedPause","inputs":[]},{"type":"error","name":"FailedCall","inputs":[]},{"type":"error","name":"InvalidInitialization","inputs":[]},{"type":"error","name":"NotInitializing","inputs":[]},{"type":"error","name":"UUPSUnauthorizedCallContext","inputs":[]},{"type":"error","name":"UUPSUnsupportedProxiableUUID","inputs":[{"name":"slot","type":"bytes32","internalType":"bytes32"}]}],"bytecode":{"object":"0x60a06040523073ffffffffffffffffffffffffffffffffffffffff1660809073ffffffffffffffffffffffffffffffffffffffff168152503480156041575f5ffd5b50608051611f9e6100685f395f81816111cb0152818161122001526113df0152611f9e5ff3fe60806040526004361061013e575f3560e01c806355f08d95116100b5578063a72055001161006e578063a72055001461044e578063ad3cb1cc1461048a578063c4d66de8146104b4578063cee2a9cf146104dc578063d547741f14610518578063ef097fc4146105405761013e565b806355f08d95146103425780635c975abb1461037e57806375b238fc146103a857806391d14854146103d25780639dfa6b8c1461040e578063a217fddf146104245761013e565b806336568abe1161010757806336568abe1461025a57806338d16011146102825780634b5e8d63146102aa5780634f1ef286146102c057806352d1902d146102dc57806354b7636e146103065761013e565b80620c8df01461014257806301ffc9a71461017e5780631466d019146101ba578063248a9ca3146101f65780632f2ff15d14610232575b5f5ffd5b34801561014d575f5ffd5b5061016860048036038101906101639190611922565b610568565b6040516101759190611967565b60405180910390f35b348015610189575f5ffd5b506101a4600480360381019061019f91906119d5565b6105ba565b6040516101b19190611967565b60405180910390f35b3480156101c5575f5ffd5b506101e060048036038101906101db9190611922565b610633565b6040516101ed9190611967565b60405180910390f35b348015610201575f5ffd5b5061021c60048036038101906102179190611a33565b610684565b6040516102299190611a6d565b60405180910390f35b34801561023d575f5ffd5b5061025860048036038101906102539190611a86565b6106ae565b005b348015610265575f5ffd5b50610280600480360381019061027b9190611a86565b6106d0565b005b34801561028d575f5ffd5b506102a860048036038101906102a39190611922565b61074b565b005b3480156102b5575f5ffd5b506102be6107a3565b005b6102da60048036038101906102d59190611c00565b6108c6565b005b3480156102e7575f5ffd5b506102f06108e5565b6040516102fd9190611a6d565b60405180910390f35b348015610311575f5ffd5b5061032c60048036038101906103279190611922565b610916565b6040516103399190611967565b60405180910390f35b34801561034d575f5ffd5b5061036860048036038101906103639190611922565b610933565b6040516103759190611967565b60405180910390f35b348015610389575f5ffd5b5061039261094f565b60405161039f9190611967565b60405180910390f35b3480156103b3575f5ffd5b506103bc610971565b6040516103c99190611a6d565b60405180910390f35b3480156103dd575f5ffd5b506103f860048036038101906103f39190611a86565b610995565b6040516104059190611967565b60405180910390f35b348015610419575f5ffd5b50610422610a06565b005b34801561042f575f5ffd5b50610438610b28565b6040516104459190611a6d565b60405180910390f35b348015610459575f5ffd5b50610474600480360381019061046f9190611922565b610b2e565b6040516104819190611967565b60405180910390f35b348015610495575f5ffd5b5061049e610b4b565b6040516104ab9190611cba565b60405180910390f35b3480156104bf575f5ffd5b506104da60048036038101906104d59190611922565b610b84565b005b3480156104e7575f5ffd5b5061050260048036038101906104fd9190611922565b610d4c565b60405161050f9190611967565b60405180910390f35b348015610523575f5ffd5b5061053e60048036038101906105399190611a86565b610d9e565b005b34801561054b575f5ffd5b5061056660048036038101906105619190611922565b610dc0565b005b5f60025f8373ffffffffffffffffffffffffffffffffffffffff1673ffffffffffffffffffffffffffffffffffffffff1681526020019081526020015f205f9054906101000a900460ff169050919050565b5f7f7965db0b000000000000000000000000000000000000000000000000000000007bffffffffffffffffffffffffffffffffffffffffffffffffffffffff1916827bffffffffffffffffffffffffffffffffffffffffffffffffffffffff1916148061062c575061062b82610f2e565b5b9050919050565b5f5f5f8373ffffffffffffffffffffffffffffffffffffffff1673ffffffffffffffffffffffffffffffffffffffff1681526020019081526020015f205f9054906101000a900460ff169050919050565b5f5f61068e610f97565b9050805f015f8481526020019081526020015f2060010154915050919050565b6106b782610684565b6106c081610fbe565b6106ca8383610fd2565b50505050565b6106d86110ca565b73ffffffffffffffffffffffffffffffffffffffff168173ffffffffffffffffffffffffffffffffffffffff161461073c576040517f6697b23200000000000000000000000000000000000000000000000000000000815260040160405180910390fd5b61074682826110d1565b505050565b600160025f8373ffffffffffffffffffffffffffffffffffffffff1673ffffffffffffffffffffffffffffffffffffffff1681526020019081526020015f205f6101000a81548160ff02191690831515021790555050565b60015f3373ffffffffffffffffffffffffffffffffffffffff1673ffffffffffffffffffffffffffffffffffffffff1681526020019081526020015f205f9054906101000a900460ff161561082d576040517f08c379a000000000000000000000000000000000000000000000000000000000815260040161082490611d24565b60405180910390fd5b6001805f3373ffffffffffffffffffffffffffffffffffffffff1673ffffffffffffffffffffffffffffffffffffffff1681526020019081526020015f205f6101000a81548160ff0219169083151502179055503373ffffffffffffffffffffffffffffffffffffffff167f01e428601546e19350993364c26c5a618b33ef987abc24525c998748ae96429460405160405180910390a2565b6108ce6111c9565b6108d7826112af565b6108e182826112bf565b5050565b5f6108ee6113dd565b7f360894a13ba1a3210667c828492db98dca3e2076cc3735a920a3ca505d382bbc5f1b905090565b6002602052805f5260405f205f915054906101000a900460ff1681565b5f602052805f5260405f205f915054906101000a900460ff1681565b5f5f610959611464565b9050805f015f9054906101000a900460ff1691505090565b7fa49807205ce4d355092ef5a8a18f56e8913cf4a201fbe287825b095693c2177581565b5f5f61099f610f97565b9050805f015f8581526020019081526020015f205f015f8473ffffffffffffffffffffffffffffffffffffffff1673ffffffffffffffffffffffffffffffffffffffff1681526020019081526020015f205f9054906101000a900460ff1691505092915050565b5f5f3373ffffffffffffffffffffffffffffffffffffffff1673ffffffffffffffffffffffffffffffffffffffff1681526020019081526020015f205f9054906101000a900460ff1615610a8f576040517f08c379a0000000000000000000000000000000000000000000000000000000008152600401610a8690611d8c565b60405180910390fd5b60015f5f3373ffffffffffffffffffffffffffffffffffffffff1673ffffffffffffffffffffffffffffffffffffffff1681526020019081526020015f205f6101000a81548160ff0219169083151502179055503373ffffffffffffffffffffffffffffffffffffffff167ffee635715ff735ecc04676edce1c3572810b100a274b1886e1e07ac54c3bde2960405160405180910390a2565b5f5f1b81565b6001602052805f5260405f205f915054906101000a900460ff1681565b6040518060400160405280600581526020017f352e302e3000000000000000000000000000000000000000000000000000000081525081565b5f610b8d61148b565b90505f815f0160089054906101000a900460ff161590505f825f015f9054906101000a900467ffffffffffffffff1690505f5f8267ffffffffffffffff16148015610bd55750825b90505f60018367ffffffffffffffff16148015610c0857505f3073ffffffffffffffffffffffffffffffffffffffff163b145b905081158015610c16575080155b15610c4d576040517ff92ee8a900000000000000000000000000000000000000000000000000000000815260040160405180910390fd5b6001855f015f6101000a81548167ffffffffffffffff021916908367ffffffffffffffff1602179055508315610c9a576001855f0160086101000a81548160ff0219169083151502179055505b610ca261149e565b610caa6114a8565b610cb26114b2565b610cbe5f5f1b87610fd2565b50610ce97fa49807205ce4d355092ef5a8a18f56e8913cf4a201fbe287825b095693c2177587610fd2565b508315610d44575f855f0160086101000a81548160ff0219169083151502179055507fc7f505b2f371ae2175ee4913f4499e1f2633a7b5936321eed1cdaeb6115181d26001604051610d3b9190611dff565b60405180910390a15b505050505050565b5f60015f8373ffffffffffffffffffffffffffffffffffffffff1673ffffffffffffffffffffffffffffffffffffffff1681526020019081526020015f205f9054906101000a900460ff169050919050565b610da782610684565b610db081610fbe565b610dba83836110d1565b50505050565b610df17fa49807205ce4d355092ef5a8a18f56e8913cf4a201fbe287825b095693c21775610dec6110ca565b610995565b610e30576040517f08c379a0000000000000000000000000000000000000000000000000000000008152600401610e2790611e62565b60405180910390fd5b5f5f5f8373ffffffffffffffffffffffffffffffffffffffff1673ffffffffffffffffffffffffffffffffffffffff1681526020019081526020015f205f6101000a81548160ff0219169083151502179055505f60015f8373ffffffffffffffffffffffffffffffffffffffff1673ffffffffffffffffffffffffffffffffffffffff1681526020019081526020015f205f6101000a81548160ff0219169083151502179055505f60025f8373ffffffffffffffffffffffffffffffffffffffff1673ffffffffffffffffffffffffffffffffffffffff1681526020019081526020015f205f6101000a81548160ff02191690831515021790555050565b5f7f01ffc9a7000000000000000000000000000000000000000000000000000000007bffffffffffffffffffffffffffffffffffffffffffffffffffffffff1916827bffffffffffffffffffffffffffffffffffffffffffffffffffffffff1916149050919050565b5f7f02dd7bc7dec4dceedda775e58dd541e08a116c6c53815c0bd028192f7b626800905090565b610fcf81610fca6110ca565b6114bc565b50565b5f5f610fdc610f97565b9050610fe88484610995565b6110bf576001815f015f8681526020019081526020015f205f015f8573ffffffffffffffffffffffffffffffffffffffff1673ffffffffffffffffffffffffffffffffffffffff1681526020019081526020015f205f6101000a81548160ff02191690831515021790555061105b6110ca565b73ffffffffffffffffffffffffffffffffffffffff168373ffffffffffffffffffffffffffffffffffffffff16857f2f8788117e7eff1d82e926ec794901d17c78024a50270940304540a733656f0d60405160405180910390a460019150506110c4565b5f9150505b92915050565b5f33905090565b5f5f6110db610f97565b90506110e78484610995565b156111be575f815f015f8681526020019081526020015f205f015f8573ffffffffffffffffffffffffffffffffffffffff1673ffffffffffffffffffffffffffffffffffffffff1681526020019081526020015f205f6101000a81548160ff02191690831515021790555061115a6110ca565b73ffffffffffffffffffffffffffffffffffffffff168373ffffffffffffffffffffffffffffffffffffffff16857ff6391f5c32d9c69d2a47ea670b442974b53935d1edc7fd64eb21e047a839171b60405160405180910390a460019150506111c3565b5f9150505b92915050565b7f000000000000000000000000000000000000000000000000000000000000000073ffffffffffffffffffffffffffffffffffffffff163073ffffffffffffffffffffffffffffffffffffffff16148061127657507f000000000000000000000000000000000000000000000000000000000000000073ffffffffffffffffffffffffffffffffffffffff1661125d61150d565b73ffffffffffffffffffffffffffffffffffffffff1614155b156112ad576040517fe07c8dba00000000000000000000000000000000000000000000000000000000815260040160405180910390fd5b565b5f5f1b6112bb81610fbe565b5050565b8173ffffffffffffffffffffffffffffffffffffffff166352d1902d6040518163ffffffff1660e01b8152600401602060405180830381865afa92505050801561132757506040513d601f19601f820116820180604052508101906113249190611e94565b60015b61136857816040517f4c9c8ce300000000000000000000000000000000000000000000000000000000815260040161135f9190611ece565b60405180910390fd5b7f360894a13ba1a3210667c828492db98dca3e2076cc3735a920a3ca505d382bbc5f1b81146113ce57806040517faa1d49a40000000000000000000000000000000000000000000000000000000081526004016113c59190611a6d565b60405180910390fd5b6113d88383611560565b505050565b7f000000000000000000000000000000000000000000000000000000000000000073ffffffffffffffffffffffffffffffffffffffff163073ffffffffffffffffffffffffffffffffffffffff1614611462576040517fe07c8dba00000000000000000000000000000000000000000000000000000000815260040160405180910390fd5b565b5f7fcd5ed15c6e187e77e9aee88184c21f4f2182ab5827cb3b7e07fbedcd63f03300905090565b5f5f6114956115d2565b90508091505090565b6114a66115fb565b565b6114b06115fb565b565b6114ba6115fb565b565b6114c68282610995565b6115095780826040517fe2517d3f000000000000000000000000000000000000000000000000000000008152600401611500929190611ee7565b60405180910390fd5b5050565b5f6115397f360894a13ba1a3210667c828492db98dca3e2076cc3735a920a3ca505d382bbc5f1b61163b565b5f015f9054906101000a900473ffffffffffffffffffffffffffffffffffffffff16905090565b61156982611644565b8173ffffffffffffffffffffffffffffffffffffffff167fbc7cd75a20ee27fd9adebab32041f755214dbc6bffa90cc0225b39da2e5c2d3b60405160405180910390a25f815111156115c5576115bf828261170d565b506115ce565b6115cd61178d565b5b5050565b5f7ff0c57e16840df040f15088dc2f81fe391c3923bec73e23a9662efc9c229c6a005f1b905090565b6116036117c9565b611639576040517fd7e6bcf800000000000000000000000000000000000000000000000000000000815260040160405180910390fd5b565b5f819050919050565b5f8173ffffffffffffffffffffffffffffffffffffffff163b0361169f57806040517f4c9c8ce30000000000000000000000000000000000000000000000000000000081526004016116969190611ece565b60405180910390fd5b806116cb7f360894a13ba1a3210667c828492db98dca3e2076cc3735a920a3ca505d382bbc5f1b61163b565b5f015f6101000a81548173ffffffffffffffffffffffffffffffffffffffff021916908373ffffffffffffffffffffffffffffffffffffffff16021790555050565b60605f5f8473ffffffffffffffffffffffffffffffffffffffff16846040516117369190611f52565b5f60405180830381855af49150503d805f811461176e576040519150601f19603f3d011682016040523d82523d5f602084013e611773565b606091505b50915091506117838583836117e7565b9250505092915050565b5f3411156117c7576040517fb398979f00000000000000000000000000000000000000000000000000000000815260040160405180910390fd5b565b5f6117d261148b565b5f0160089054906101000a900460ff16905090565b6060826117fc576117f782611874565b61186c565b5f825114801561182257505f8473ffffffffffffffffffffffffffffffffffffffff163b145b1561186457836040517f9996b31500000000000000000000000000000000000000000000000000000000815260040161185b9190611ece565b60405180910390fd5b81905061186d565b5b9392505050565b5f8151111561188557805160208201fd5b6040517fd6bda27500000000000000000000000000000000000000000000000000000000815260040160405180910390fd5b5f604051905090565b5f5ffd5b5f5ffd5b5f73ffffffffffffffffffffffffffffffffffffffff82169050919050565b5f6118f1826118c8565b9050919050565b611901816118e7565b811461190b575f5ffd5b50565b5f8135905061191c816118f8565b92915050565b5f60208284031215611937576119366118c0565b5b5f6119448482850161190e565b91505092915050565b5f8115159050919050565b6119618161194d565b82525050565b5f60208201905061197a5f830184611958565b92915050565b5f7fffffffff0000000000000000000000000000000000000000000000000000000082169050919050565b6119b481611980565b81146119be575f5ffd5b50565b5f813590506119cf816119ab565b92915050565b5f602082840312156119ea576119e96118c0565b5b5f6119f7848285016119c1565b91505092915050565b5f819050919050565b611a1281611a00565b8114611a1c575f5ffd5b50565b5f81359050611a2d81611a09565b92915050565b5f60208284031215611a4857611a476118c0565b5b5f611a5584828501611a1f565b91505092915050565b611a6781611a00565b82525050565b5f602082019050611a805f830184611a5e565b92915050565b5f5f60408385031215611a9c57611a9b6118c0565b5b5f611aa985828601611a1f565b9250506020611aba8582860161190e565b9150509250929050565b5f5ffd5b5f5ffd5b5f601f19601f8301169050919050565b7f4e487b71000000000000000000000000000000000000000000000000000000005f52604160045260245ffd5b611b1282611acc565b810181811067ffffffffffffffff82111715611b3157611b30611adc565b5b80604052505050565b5f611b436118b7565b9050611b4f8282611b09565b919050565b5f67ffffffffffffffff821115611b6e57611b6d611adc565b5b611b7782611acc565b9050602081019050919050565b828183375f83830152505050565b5f611ba4611b9f84611b54565b611b3a565b905082815260208101848484011115611bc057611bbf611ac8565b5b611bcb848285611b84565b509392505050565b5f82601f830112611be757611be6611ac4565b5b8135611bf7848260208601611b92565b91505092915050565b5f5f60408385031215611c1657611c156118c0565b5b5f611c238582860161190e565b925050602083013567ffffffffffffffff811115611c4457611c436118c4565b5b611c5085828601611bd3565b9150509250929050565b5f81519050919050565b5f82825260208201905092915050565b8281835e5f83830152505050565b5f611c8c82611c5a565b611c968185611c64565b9350611ca6818560208601611c74565b611caf81611acc565b840191505092915050565b5f6020820190508181035f830152611cd28184611c82565b905092915050565b7f496e766573746f7220616c7265616479207265676973746572656400000000005f82015250565b5f611d0e601b83611c64565b9150611d1982611cda565b602082019050919050565b5f6020820190508181035f830152611d3b81611d02565b9050919050565b7f427573696e65737320616c7265616479207265676973746572656400000000005f82015250565b5f611d76601b83611c64565b9150611d8182611d42565b602082019050919050565b5f6020820190508181035f830152611da381611d6a565b9050919050565b5f819050919050565b5f67ffffffffffffffff82169050919050565b5f819050919050565b5f611de9611de4611ddf84611daa565b611dc6565b611db3565b9050919050565b611df981611dcf565b82525050565b5f602082019050611e125f830184611df0565b92915050565b7f43616c6c6572206973206e6f7420616e2061646d696e000000000000000000005f82015250565b5f611e4c601683611c64565b9150611e5782611e18565b602082019050919050565b5f6020820190508181035f830152611e7981611e40565b9050919050565b5f81519050611e8e81611a09565b92915050565b5f60208284031215611ea957611ea86118c0565b5b5f611eb684828501611e80565b91505092915050565b611ec8816118e7565b82525050565b5f602082019050611ee15f830184611ebf565b92915050565b5f604082019050611efa5f830185611ebf565b611f076020830184611a5e565b9392505050565b5f81519050919050565b5f81905092915050565b5f611f2c82611f0e565b611f368185611f18565b9350611f46818560208601611c74565b80840191505092915050565b5f611f5d8284611f22565b91508190509291505056fea264697066735822122042a04c3d6bc2a400c79ad8fe787d0aafe8ac605e8c183225cc682c10ec25039f64736f6c634300081d0033","linkReferences":{}},"methodIdentifiers":{"ADMIN_ROLE()":"75b238fc","DEFAULT_ADMIN_ROLE()":"a217fddf","UPGRADE_INTERFACE_VERSION()":"ad3cb1cc","getKYCStatus(address)":"000c8df0","getRoleAdmin(bytes32)":"248a9ca3","grantRole(bytes32,address)":"2f2ff15d","hasRole(bytes32,address)":"91d14854","initialize(address)":"c4d66de8","isBusiness(address)":"1466d019","isInvestor(address)":"cee2a9cf","isKYCVerified(address)":"54b7636e","paused()":"5c975abb","proxiableUUID()":"52d1902d","registerBusiness()":"9dfa6b8c","registerInvestor()":"4b5e8d63","registeredBusinesses(address)":"55f08d95","registeredInvestors(address)":"a7205500","renounceRole(bytes32,address)":"36568abe","revokeRole(bytes32,address)":"d547741f","revokeUser(address)":"ef097fc4","supportsInterface(bytes4)":"01ffc9a7","upgradeToAndCall(address,bytes)":"4f1ef286","verifyKYC(address)":"38d16011"},"id":55}