{"abi":[{"type":"function","name":"BURNER_ROLE","inputs":[],"outputs":[{"name":"","type":"bytes32","internalType":"bytes32"}],"stateMutability":"view"},{"type":"function","name":"DEFAULT_ADMIN_ROLE","inputs":[],"outputs":[{"name":"","type":"bytes32","internalType":"bytes32"}],"stateMutability":"view"},{"type":"function","name":"HOOK_ADMIN_ROLE","inputs":[],"outputs":[{"name":"","type":"bytes32","internalType":"bytes32"}],"stateMutability":"view"},{"type":"function","name":"balanceOf","inputs":[{"name":"account","type":"address","internalType":"address"},{"name":"id","type":"uint256","internalType":"uint256"}],"outputs":[{"name":"","type":"uint256","internalType":"uint256"}],"stateMutability":"view"},{"type":"function","name":"balanceOfBatch","inputs":[{"name":"accounts","type":"address[]","internalType":"address[]"},{"name":"ids","type":"uint256[]","internalType":"uint256[]"}],"outputs":[{"name":"","type":"uint256[]","internalType":"uint256[]"}],"stateMutability":"view"},{"type":"function","name":"burn","inputs":[{"name":"account","type":"address","internalType":"address"},{"name":"id","type":"uint256","internalType":"uint256"},{"name":"value","type":"uint256","internalType":"uint256"}],"outputs":[],"stateMutability":"nonpayable"},{"type":"function","name":"burnBatch","inputs":[{"name":"account","type":"address","internalType":"address"},{"name":"ids","type":"uint256[]","internalType":"uint256[]"},{"name":"values","type":"uint256[]","internalType":"uint256[]"}],"outputs":[],"stateMutability":"nonpayable"},{"type":"function","name":"buyInvoiceTokens","inputs":[{"name":"id","type":"uint256","internalType":"uint256"},{"name":"quantity","type":"uint256","internalType":"uint256"}],"outputs":[],"stateMutability":"nonpayable"},{"type":"function","name":"claimProfitFromMaturedInvoice","inputs":[{"name":"id","type":"uint256","internalType":"uint256"},{"name":"quantity","type":"uint256","internalType":"uint256"}],"outputs":[],"stateMutability":"nonpayable"},{"type":"function","name":"createInvoice","inputs":[{"name":"loanAmount","type":"uint256","internalType":"uint256"},{"name":"invoiceValue","type":"uint256","internalType":"uint256"},{"name":"unitValue","type":"uint256","internalType":"uint256"},{"name":"campaignDuration","type":"uint256","internalType":"uint256"},{"name":"maturityDate","type":"uint256","internalType":"uint256"},{"name":"data","type":"bytes","internalType":"bytes"}],"outputs":[],"stateMutability":"nonpayable"},{"type":"function","name":"fulfillInvoice","inputs":[{"name":"id","type":"uint256","internalType":"uint256"}],"outputs":[],"stateMutability":"nonpayable"},{"type":"function","name":"getInvoiceOwner","inputs":[{"name":"id","type":"uint256","internalType":"uint256"}],"outputs":[{"name":"","type":"address","internalType":"address"}],"stateMutability":"view"},{"type":"function","name":"getRoleAdmin","inputs":[{"name":"role","type":"bytes32","internalType":"bytes32"}],"outputs":[{"name":"","type":"bytes32","internalType":"bytes32"}],"stateMutability":"view"},{"type":"function","name":"grantRole","inputs":[{"name":"role","type":"bytes32","internalType":"bytes32"},{"name":"account","type":"address","internalType":"address"}],"outputs":[],"stateMutability":"nonpayable"},{"type":"function","name":"hasRole","inputs":[{"name":"role","type":"bytes32","internalType":"bytes32"},{"name":"account","type":"address","internalType":"address"}],"outputs":[{"name":"","type":"bool","internalType":"bool"}],"stateMutability":"view"},{"type":"function","name":"idToInvoiceDetails","inputs":[{"name":"","type":"uint256","internalType":"uint256"}],"outputs":[{"name":"loanAmount","type":"uint256","internalType":"uint256"},{"name":"invoiceValue","type":"uint256","internalType":"uint256"},{"name":"unitValue","type":"uint256","internalType":"uint256"},{"name":"createdAt","type":"uint256","internalType":"uint256"},{"name":"createdBy","type":"address","internalType":"address"},{"name":"campaignDuration","type":"uint256","internalType":"uint256"},{"name":"campaignEndTime","type":"uint256","internalType":"uint256"},{"name":"maturityDate","type":"uint256","internalType":"uint256"},{"name":"tokenSupply","type":"uint256","internalType":"uint256"},{"name":"availableSupply","type":"uint256","internalType":"uint256"},{"name":"isFulfilled","type":"bool","internalType":"bool"},{"name":"data","type":"bytes","internalType":"bytes"}],"stateMutability":"view"},{"type":"function","name":"idToOwner","inputs":[{"name":"","type":"uint256","internalType":"uint256"}],"outputs":[{"name":"","type":"address","internalType":"address"}],"stateMutability":"view"},{"type":"function","name":"initialize","inputs":[{"name":"admin","type":"address","internalType":"address"},{"name":"_usdc","type":"address","internalType":"address"},{"name":"kyc","type":"address","internalType":"address"}],"outputs":[],"stateMutability":"nonpayable"},{"type":"function","name":"isApprovedForAll","inputs":[{"name":"account","type":"address","internalType":"address"},{"name":"operator","type":"address","internalType":"address"}],"outputs":[{"name":"","type":"bool","internalType":"bool"}],"stateMutability":"view"},{"type":"function","name":"nonce","inputs":[],"outputs":[{"name":"","type":"uint256","internalType":"uint256"}],"stateMutability":"view"},{"type":"function","name":"onERC1155BatchReceived","inputs":[{"name":"","type":"address","internalType":"address"},{"name":"","type":"address","internalType":"address"},{"name":"","type":"uint256[]","internalType":"uint256[]"},{"name":"","type":"uint256[]","internalType":"uint256[]"},{"name":"","type":"bytes","internalType":"bytes"}],"outputs":[{"name":"","type":"bytes4","internalType":"bytes4"}],"stateMutability":"pure"},{"type":"function","name":"onERC1155Received","inputs":[{"name":"","type":"address","internalType":"address"},{"name":"","type":"address","internalType":"address"},{"name":"","type":"uint256","internalType":"uint256"},{"name":"","type":"uint256","internalType":"uint256"},{"name":"","type":"bytes","internalType":"bytes"}],"outputs":[{"name":"","type":"bytes4","internalType":"bytes4"}],"stateMutability":"pure"},{"type":"function","name":"ownerToIds","inputs":[{"name":"","type":"address","internalType":"address"},{"name":"","type":"uint256","internalType":"uint256"}],"outputs":[{"name":"","type":"uint256","internalType":"uint256"}],"stateMutability":"view"},{"type":"function","name":"renounceRole","inputs":[{"name":"role","type":"bytes32","internalType":"bytes32"},{"name":"callerConfirmation","type":"address","internalType":"address"}],"outputs":[],"stateMutability":"nonpayable"},{"type":"function","name":"revokeRole","inputs":[{"name":"role","type":"bytes32","internalType":"bytes32"},{"name":"account","type":"address","internalType":"address"}],"outputs":[],"stateMutability":"nonpayable"},{"type":"function","name":"safeBatchTransferFrom","inputs":[{"name":"from","type":"address","internalType":"address"},{"name":"to","type":"address","internalType":"address"},{"name":"ids","type":"uint256[]","internalType":"uint256[]"},{"name":"values","type":"uint256[]","internalType":"uint256[]"},{"name":"data","type":"bytes","internalType":"bytes"}],"outputs":[],"stateMutability":"nonpayable"},{"type":"function","name":"safeTransferFrom","inputs":[{"name":"from","type":"address","internalType":"address"},{"name":"to","type":"address","internalType":"address"},{"name":"id","type":"uint256","internalType":"uint256"},{"name":"value","type":"uint256","internalType":"uint256"},{"name":"data","type":"bytes","internalType":"bytes"}],"outputs":[],"stateMutability":"nonpayable"},{"type":"function","name":"setApprovalForAll","inputs":[{"name":"operator","type":"address","internalType":"address"},{"name":"approved","type":"bool","internalType":"bool"}],"outputs":[],"stateMutability":"nonpayable"},{"type":"function","name":"setTransferHook","inputs":[{"name":"hook","type":"address","internalType":"address"}],"outputs":[],"stateMutability":"nonpayable"},{"type":"function","name":"supportsInterface","inputs":[{"name":"interfaceId","type":"bytes4","internalType":"bytes4"}],"outputs":[{"name":"","type":"bool","internalType":"bool"}],"stateMutability":"view"},{"type":"function","name":"transferHook","inputs":[],"outputs":[{"name":"","type":"address","internalType":"contract ITransferHook1155"}],"stateMutability":"view"},{"type":"function","name":"uri","inputs":[{"name":"","type":"uint256","internalType":"uint256"}],"outputs":[{"name":"","type":"string","internalType":"string"}],"stateMutability":"view"},{"type":"function","name":"usdc","inputs":[],"outputs":[{"name":"","type":"address","internalType":"contract IUSDC"}],"stateMutability":"view"},{"type":"function","name":"withdrawInvoiceLoan","inputs":[{"name":"id","type":"uint256","internalType":"uint256"}],"outputs":[],"stateMutability":"nonpayable"},{"type":"event","name":"ApprovalForAll","inputs":[{"name":"account","type":"address","indexed":true,"internalType":"address"},{"name":"operator","type":"address","indexed":true,"internalType":"address"},{"name":"approved","type":"bool","indexed":false,"internalType":"bool"}],"anonymous":false},{"type":"event","name":"Initialized","inputs":[{"name":"version","type":"uint64","indexed":false,"internalType":"uint64"}],"anonymous":false},{"type":"event","name":"InvoiceBurned","inputs":[{"name":"from","type":"address","indexed":true,"internalType":"address"},{"name":"id","type":"uint256","indexed":true,"internalType":"uint256"},{"name":"amount","type":"uint256","indexed":false,"internalType":"uint256"}],"anonymous":false},{"type":"event","name":"InvoiceFullfilled","inputs":[{"name":"createdBy","type":"address","indexed":true,"internalType":"address"},{"name":"id","type":"uint256","indexed":true,"internalType":"uint256"},{"name":"amount","type":"uint256","indexed":false,"internalType":"uint256"}],"anonymous":false},{"type":"event","name":"InvoiceMinted","inputs":[{"name":"createdBy","type":"address","indexed":true,"internalType":"address"},{"name":"id","type":"uint256","indexed":true,"internalType":"uint256"},{"name":"amount","type":"uint256","indexed":false,"internalType":"uint256"},{"name":"metadataURI","type":"string","indexed":false,"internalType":"string"}],"anonymous":false},{"type":"event","name":"InvoiceProfitClaimed","inputs":[{"name":"claimer","type":"address","indexed":true,"internalType":"address"},{"name":"id","type":"uint256","indexed":true,"internalType":"uint256"},{"name":"amount","type":"uint256","indexed":false,"internalType":"uint256"}],"anonymous":false},{"type":"event","name":"InvoiceTokensBought","inputs":[{"name":"buyer","type":"address","indexed":true,"internalType":"address"},{"name":"id","type":"uint256","indexed":true,"internalType":"uint256"},{"name":"quantity","type":"uint256","indexed":false,"internalType":"uint256"}],"anonymous":false},{"type":"event","name":"InvoiceWithdrawn","inputs":[{"name":"createdBy","type":"address","indexed":true,"internalType":"address"},{"name":"id","type":"uint256","indexed":true,"internalType":"uint256"},{"name":"amount","type":"uint256","indexed":false,"internalType":"uint256"}],"anonymous":false},{"type":"event","name":"RoleAdminChanged","inputs":[{"name":"role","type":"bytes32","indexed":true,"internalType":"bytes32"},{"name":"previousAdminRole","type":"bytes32","indexed":true,"internalType":"bytes32"},{"name":"newAdminRole","type":"bytes32","indexed":true,"internalType":"bytes32"}],"anonymous":false},{"type":"event","name":"RoleGranted","inputs":[{"name":"role","type":"bytes32","indexed":true,"internalType":"bytes32"},{"name":"account","type":"address","indexed":true,"internalType":"address"},{"name":"sender","type":"address","indexed":true,"internalType":"address"}],"anonymous":false},{"type":"event","name":"RoleRevoked","inputs":[{"name":"role","type":"bytes32","indexed":true,"internalType":"bytes32"},{"name":"account","type":"address","indexed":true,"internalType":"address"},{"name":"sender","type":"address","indexed":true,"internalType":"address"}],"anonymous":false},{"type":"event","name":"TransferBatch","inputs":[{"name":"operator","type":"address","indexed":true,"internalType":"address"},{"name":"from","type":"address","indexed":true,"internalType":"address"},{"name":"to","type":"address","indexed":true,"internalType":"address"},{"name":"ids","type":"uint256[]","indexed":false,"internalType":"uint256[]"},{"name":"values","type":"uint256[]","indexed":false,"internalType":"uint256[]"}],"anonymous":false},{"type":"event","name":"TransferHookSet","inputs":[{"name":"oldHook","type":"address","indexed":true,"internalType":"address"},{"name":"newHook","type":"address","indexed":true,"internalType":"address"},{"name":"setter","type":"address","indexed":true,"internalType":"address"}],"anonymous":false},{"type":"event","name":"TransferSingle","inputs":[{"name":"operator","type":"address","indexed":true,"internalType":"address"},{"name":"from","type":"address","indexed":true,"internalType":"address"},{"name":"to","type":"address","indexed":true,"internalType":"address"},{"name":"id","type":"uint256","indexed":false,"internalType":"uint256"},{"name":"value","type":"uint256","indexed":false,"internalType":"uint256"}],"anonymous":false},{"type":"event","name":"URI","inputs":[{"name":"value","type":"string","indexed":false,"internalType":"string"},{"name":"id","type":"uint256","indexed":true,"internalType":"uint256"}],"anonymous":false},{"type":"error","name":"AccessControlBadConfirmation","inputs":[]},{"type":"error","name":"AccessControlUnauthorizedAccount","inputs":[{"name":"account","type":"address","internalType":"address"},{"name":"neededRole","type":"bytes32","internalType":"bytes32"}]},{"type":"error","name":"ERC1155InsufficientBalance","inputs":[{"name":"sender","type":"address","internalType":"address"},{"name":"balance","type":"uint256","internalType":"uint256"},{"name":"needed","type":"uint256","internalType":"uint256"},{"name":"tokenId","type":"uint256","internalType":"uint256"}]},{"type":"error","name":"ERC1155InvalidApprover","inputs":[{"name":"approver","type":"address","internalType":"address"}]},{"type":"error","name":"ERC1155InvalidArrayLength","inputs":[{"name":"idsLength","type":"uint256","internalType":"uint256"},{"name":"valuesLength","type":"uint256","internalType":"uint256"}]},{"type":"error","name":"ERC1155InvalidOperator","inputs":[{"name":"operator","type":"address","internalType":"address"}]},{"type":"error","name":"ERC1155InvalidReceiver","inputs":[{"name":"receiver","type":"address","internalType":"address"}]},{"type":"error","name":"ERC1155InvalidSender","inputs":[{"name":"sender","type":"address","internalType":"address"}]},{"type":"error","name":"ERC1155MissingApprovalForAll","inputs":[{"name":"operator","type":"address","internalType":"address"},{"name":"owner","type":"address","internalType":"address"}]},{"type":"error","name":"InvalidInitialization","inputs":[]},{"type":"error","name":"NotInitializing","inputs":[]},{"type":"error","name":"ReentrancyGuardReentrantCall","inputs":[]},{"type":"error","name":"SafeERC20FailedOperation","inputs":[{"name":"token","type":"address","internalType":"address"}]}],"bytecode":{"object":"0x6080604052348015600e575f5ffd5b506155098061001c5f395ff3fe608060405234801561000f575f5ffd5b5060043610610203575f3560e01c806382bc7bc911610118578063c0c53b8b116100ab578063ebafe1d01161007a578063ebafe1d014610607578063f23a6e6114610642578063f242432a14610672578063f5298aca1461068e578063feb3d3d6146106aa57610203565b8063c0c53b8b14610583578063d547741f1461059f578063e985e9c5146105bb578063eb829d3c146105eb57610203565b8063a3b6619f116100e7578063a3b6619f146104e9578063affed0e014610505578063bc197c8114610523578063bfc206ed1461055357610203565b806382bc7bc91461046157806391d148541461047f578063a217fddf146104af578063a22cb465146104cd57610203565b80632eb2c2d61161019b5780634e1273f41161016a5780634e1273f4146103ad5780635ea27553146103dd5780636b20c454146103f95780637208b190146104155780637f2dc61c1461044557610203565b80632eb2c2d61461033b5780632f2ff15d1461035757806336568abe146103735780633e413bee1461038f57610203565b80631b8bf119116101d75780631b8bf119146102b3578063227a6e63146102cf578063248a9ca3146102ed578063282c51f31461031d57610203565b8062fdd58e1461020757806301ffc9a71461023757806305095c0c146102675780630e89341c14610283575b5f5ffd5b610221600480360381019061021c9190613659565b6106da565b60405161022e91906136a6565b60405180910390f35b610251600480360381019061024c9190613714565b61073d565b60405161025e9190613759565b60405180910390f35b610281600480360381019061027c9190613772565b61074e565b005b61029d60048036038101906102989190613772565b610931565b6040516102aa919061380d565b60405180910390f35b6102cd60048036038101906102c89190613772565b6109d1565b005b6102d7610c49565b6040516102e49190613845565b60405180910390f35b61030760048036038101906103029190613888565b610c6d565b6040516103149190613845565b60405180910390f35b610325610c97565b6040516103329190613845565b60405180910390f35b61035560048036038101906103509190613aa3565b610cbb565b005b610371600480360381019061036c9190613b6e565b610d62565b005b61038d60048036038101906103889190613b6e565b610d84565b005b610397610dff565b6040516103a49190613c07565b60405180910390f35b6103c760048036038101906103c29190613ce0565b610e24565b6040516103d49190613e0d565b60405180910390f35b6103f760048036038101906103f29190613e2d565b610f2e565b005b610413600480360381019061040e9190613e6b565b611146565b005b61042f600480360381019061042a9190613772565b6111f2565b60405161043c9190613f02565b60405180910390f35b61045f600480360381019061045a9190613f1b565b61122b565b005b61046961139e565b6040516104769190613f66565b60405180910390f35b61049960048036038101906104949190613b6e565b6113c3565b6040516104a69190613759565b60405180910390f35b6104b7611434565b6040516104c49190613845565b60405180910390f35b6104e760048036038101906104e29190613fa9565b61143a565b005b61050360048036038101906104fe9190613e2d565b611450565b005b61050d6115d1565b60405161051a91906136a6565b60405180910390f35b61053d60048036038101906105389190614095565b6115d7565b60405161054a919061417b565b60405180910390f35b61056d60048036038101906105689190613772565b6115ee565b60405161057a9190613f02565b60405180910390f35b61059d60048036038101906105989190614194565b61161e565b005b6105b960048036038101906105b49190613b6e565b6118a1565b005b6105d560048036038101906105d091906141e4565b6118c3565b6040516105e29190613759565b60405180910390f35b61060560048036038101906106009190614222565b61195f565b005b610621600480360381019061061c9190613772565b611e25565b6040516106399c9b9a99989796959493929190614319565b60405180910390f35b61065c600480360381019061065791906143d8565b611f32565b604051610669919061417b565b60405180910390f35b61068c6004803603810190610687919061446e565b611f47565b005b6106a860048036038101906106a39190614501565b611fee565b005b6106c460048036038101906106bf9190613659565b61209a565b6040516106d191906136a6565b60405180910390f35b5f5f6106e46120c5565b9050805f015f8481526020019081526020015f205f8573ffffffffffffffffffffffffffffffffffffffff1673ffffffffffffffffffffffffffffffffffffffff1681526020019081526020015f205491505092915050565b5f610747826120ec565b9050919050565b5f151560055f8381526020019081526020015f20600a015f9054906101000a900460ff161515146107b4576040517f08c379a00000000000000000000000000000000000000000000000000000000081526004016107ab9061459b565b60405180910390fd5b5f60055f8381526020019081526020015f20600901541461080a576040517f08c379a000000000000000000000000000000000000000000000000000000000815260040161080190614603565b60405180910390fd5b61086c333060055f8581526020019081526020015f206001015460015f9054906101000a900473ffffffffffffffffffffffffffffffffffffffff1673ffffffffffffffffffffffffffffffffffffffff16612165909392919063ffffffff16565b600160055f8381526020019081526020015f20600a015f6101000a81548160ff0219169083151502179055508060055f8381526020019081526020015f206004015f9054906101000a900473ffffffffffffffffffffffffffffffffffffffff1673ffffffffffffffffffffffffffffffffffffffff167f3d05a44cf6321ad33b053fa97923e6d6616bc1b4e613f30a085c04d4542c381060055f8581526020019081526020015f206001015460405161092691906136a6565b60405180910390a350565b60605f61093c6120c5565b905080600201805461094d9061464e565b80601f01602080910402602001604051908101604052809291908181526020018280546109799061464e565b80156109c45780601f1061099b576101008083540402835291602001916109c4565b820191905f5260205f20905b8154815290600101906020018083116109a757829003601f168201915b5050505050915050919050565b4260055f8381526020019081526020015f20600601541115610a28576040517f08c379a0000000000000000000000000000000000000000000000000000000008152600401610a1f906146c8565b60405180910390fd5b3373ffffffffffffffffffffffffffffffffffffffff1660055f8381526020019081526020015f206004015f9054906101000a900473ffffffffffffffffffffffffffffffffffffffff1673ffffffffffffffffffffffffffffffffffffffff1614610ac9576040517f08c379a0000000000000000000000000000000000000000000000000000000008152600401610ac090614730565b60405180910390fd5b5f60055f8381526020019081526020015f206009015414610b1f576040517f08c379a0000000000000000000000000000000000000000000000000000000008152600401610b1690614603565b60405180910390fd5b610bb160055f8381526020019081526020015f206004015f9054906101000a900473ffffffffffffffffffffffffffffffffffffffff1660055f8481526020019081526020015f205f015460015f9054906101000a900473ffffffffffffffffffffffffffffffffffffffff1673ffffffffffffffffffffffffffffffffffffffff166121e79092919063ffffffff16565b8060055f8381526020019081526020015f206004015f9054906101000a900473ffffffffffffffffffffffffffffffffffffffff1673ffffffffffffffffffffffffffffffffffffffff167fa1cb6c7ac6fa0c1ab25da253ab69c36e14e84ba783095da6facd50ec5972354660055f8581526020019081526020015f205f0154604051610c3e91906136a6565b60405180910390a350565b7f149940578aee69536101ee3e806c7e5f4e3ebc5143942728bd7e88b67c19657581565b5f5f610c77612266565b9050805f015f8481526020019081526020015f2060010154915050919050565b7f3c11d16cbaffd01df69ce1c404f6340ee057498f5f00246190ea54220576a84881565b5f610cc461228d565b90508073ffffffffffffffffffffffffffffffffffffffff168673ffffffffffffffffffffffffffffffffffffffff1614158015610d095750610d0786826118c3565b155b15610d4d5780866040517fe237d922000000000000000000000000000000000000000000000000000000008152600401610d4492919061474e565b60405180910390fd5b610d5a8686868686612294565b505050505050565b610d6b82610c6d565b610d7481612388565b610d7e838361239c565b50505050565b610d8c61228d565b73ffffffffffffffffffffffffffffffffffffffff168173ffffffffffffffffffffffffffffffffffffffff1614610df0576040517f6697b23200000000000000000000000000000000000000000000000000000000815260040160405180910390fd5b610dfa8282612494565b505050565b60015f9054906101000a900473ffffffffffffffffffffffffffffffffffffffff1681565b60608151835114610e7057815183516040517f5b059991000000000000000000000000000000000000000000000000000000008152600401610e67929190614775565b60405180910390fd5b5f835167ffffffffffffffff811115610e8c57610e8b6138b7565b5b604051908082528060200260200182016040528015610eba5781602001602082028036833780820191505090505b5090505f5f90505b8451811015610f2357610ef9610ee1828761258c90919063ffffffff16565b610ef4838761259f90919063ffffffff16565b6106da565b828281518110610f0c57610f0b61479c565b5b602002602001018181525050806001019050610ec2565b508091505092915050565b4260055f8481526020019081526020015f20600601541015610f85576040517f08c379a0000000000000000000000000000000000000000000000000000000008152600401610f7c90614813565b60405180910390fd5b5f8111610fc7576040517f08c379a0000000000000000000000000000000000000000000000000000000008152600401610fbe9061487b565b60405180910390fd5b8060055f8481526020019081526020015f2060090154101561101e576040517f08c379a0000000000000000000000000000000000000000000000000000000008152600401611015906148e3565b60405180910390fd5b5f60055f8481526020019081526020015f206008015460055f8581526020019081526020015f205f015483611053919061492e565b61105d919061499c565b90506110ad33308360015f9054906101000a900473ffffffffffffffffffffffffffffffffffffffff1673ffffffffffffffffffffffffffffffffffffffff16612165909392919063ffffffff16565b6110c83033858560405180602001604052805f815250611f47565b8160055f8581526020019081526020015f206009015f8282546110eb91906149cc565b92505081905550823373ffffffffffffffffffffffffffffffffffffffff167f864bedb3c54199424d4a20a6a8eadc7a145cbc4f008b010cacf6ac1f88336dfe8460405161113991906136a6565b60405180910390a3505050565b61114e61228d565b73ffffffffffffffffffffffffffffffffffffffff168373ffffffffffffffffffffffffffffffffffffffff161415801561119757506111958361119061228d565b6118c3565b155b156111e2576111a461228d565b836040517fe237d9220000000000000000000000000000000000000000000000000000000081526004016111d992919061474e565b60405180910390fd5b6111ed8383836125b2565b505050565b5f60035f8381526020019081526020015f205f9054906101000a900473ffffffffffffffffffffffffffffffffffffffff169050919050565b7f149940578aee69536101ee3e806c7e5f4e3ebc5143942728bd7e88b67c19657561125581612388565b5f73ffffffffffffffffffffffffffffffffffffffff168273ffffffffffffffffffffffffffffffffffffffff16036112c3576040517f08c379a00000000000000000000000000000000000000000000000000000000081526004016112ba90614a49565b60405180910390fd5b5f60065f9054906101000a900473ffffffffffffffffffffffffffffffffffffffff1690508260065f6101000a81548173ffffffffffffffffffffffffffffffffffffffff021916908373ffffffffffffffffffffffffffffffffffffffff1602179055503373ffffffffffffffffffffffffffffffffffffffff168373ffffffffffffffffffffffffffffffffffffffff168273ffffffffffffffffffffffffffffffffffffffff167f6e48c80b8f2c2d5a311ad17299545abd442e88eda21ea65eb891210edf60559b60405160405180910390a4505050565b60065f9054906101000a900473ffffffffffffffffffffffffffffffffffffffff1681565b5f5f6113cd612266565b9050805f015f8581526020019081526020015f205f015f8473ffffffffffffffffffffffffffffffffffffffff1673ffffffffffffffffffffffffffffffffffffffff1681526020019081526020015f205f9054906101000a900460ff1691505092915050565b5f5f1b81565b61144c61144561228d565b8383612642565b5050565b6001151560055f8481526020019081526020015f20600a015f9054906101000a900460ff161515146114b7576040517f08c379a00000000000000000000000000000000000000000000000000000000081526004016114ae90614ab1565b60405180910390fd5b806114c233846106da565b1015611503576040517f08c379a00000000000000000000000000000000000000000000000000000000081526004016114fa90614b19565b60405180910390fd5b5f60055f8481526020019081526020015f206002015482611524919061492e565b90506115313384846127b9565b61157d338260015f9054906101000a900473ffffffffffffffffffffffffffffffffffffffff1673ffffffffffffffffffffffffffffffffffffffff166121e79092919063ffffffff16565b823373ffffffffffffffffffffffffffffffffffffffff167f083d24781e510b8b11bdc682253e8ead3810fc003dba7ee8fe40864232134256836040516115c491906136a6565b60405180910390a3505050565b60025481565b5f63bc197c8160e01b905098975050505050505050565b6003602052805f5260405f205f915054906101000a900473ffffffffffffffffffffffffffffffffffffffff1681565b5f61162761285b565b90505f815f0160089054906101000a900460ff161590505f825f015f9054906101000a900467ffffffffffffffff1690505f5f8267ffffffffffffffff1614801561166f5750825b90505f60018367ffffffffffffffff161480156116a257505f3073ffffffffffffffffffffffffffffffffffffffff163b145b9050811580156116b0575080155b156116e7576040517ff92ee8a900000000000000000000000000000000000000000000000000000000815260040160405180910390fd5b6001855f015f6101000a81548167ffffffffffffffff021916908367ffffffffffffffff1602179055508315611734576001855f0160086101000a81548160ff0219169083151502179055505b8660015f6101000a81548173ffffffffffffffffffffffffffffffffffffffff021916908373ffffffffffffffffffffffffffffffffffffffff16021790555061178b60405180602001604052805f81525061286e565b611793612882565b61179b61288c565b855f5f6101000a81548173ffffffffffffffffffffffffffffffffffffffff021916908373ffffffffffffffffffffffffffffffffffffffff1602179055506117e65f5f1b8961239c565b506118117f3c11d16cbaffd01df69ce1c404f6340ee057498f5f00246190ea54220576a8488961239c565b5061183c7f149940578aee69536101ee3e806c7e5f4e3ebc5143942728bd7e88b67c1965758961239c565b508315611897575f855f0160086101000a81548160ff0219169083151502179055507fc7f505b2f371ae2175ee4913f4499e1f2633a7b5936321eed1cdaeb6115181d2600160405161188e9190614b83565b60405180910390a15b5050505050505050565b6118aa82610c6d565b6118b381612388565b6118bd8383612494565b50505050565b5f5f6118cd6120c5565b9050806001015f8573ffffffffffffffffffffffffffffffffffffffff1673ffffffffffffffffffffffffffffffffffffffff1681526020019081526020015f205f8473ffffffffffffffffffffffffffffffffffffffff1673ffffffffffffffffffffffffffffffffffffffff1681526020019081526020015f205f9054906101000a900460ff1691505092915050565b61196761289e565b5f85116119a9576040517f08c379a00000000000000000000000000000000000000000000000000000000081526004016119a090614be6565b60405180910390fd5b5f5f9054906101000a900473ffffffffffffffffffffffffffffffffffffffff1673ffffffffffffffffffffffffffffffffffffffff16631466d019336040518263ffffffff1660e01b8152600401611a029190613f02565b602060405180830381865afa158015611a1d573d5f5f3e3d5ffd5b505050506040513d601f19601f82011682018060405250810190611a419190614c18565b611a80576040517f08c379a0000000000000000000000000000000000000000000000000000000008152600401611a7790614cb3565b60405180910390fd5b5f8486611a8d9190614cd1565b14611acd576040517f08c379a0000000000000000000000000000000000000000000000000000000008152600401611ac490614d71565b60405180910390fd5b85851015611b10576040517f08c379a0000000000000000000000000000000000000000000000000000000008152600401611b0790614dff565b60405180910390fd5b5f86118015611b1e57505f84115b8015611b2957505f85115b611b68576040517f08c379a0000000000000000000000000000000000000000000000000000000008152600401611b5f90614e67565b60405180910390fd5b5f8486611b75919061499c565b90505f6040518061018001604052808981526020018881526020018781526020014281526020013373ffffffffffffffffffffffffffffffffffffffff1681526020018681526020014287611bca9190614e85565b81526020018581526020018381526020018381526020015f151581526020018481525090508060055f60025481526020019081526020015f205f820151815f01556020820151816001015560408201518160020155606082015181600301556080820151816004015f6101000a81548173ffffffffffffffffffffffffffffffffffffffff021916908373ffffffffffffffffffffffffffffffffffffffff16021790555060a0820151816005015560c0820151816006015560e082015181600701556101008201518160080155610120820151816009015561014082015181600a015f6101000a81548160ff02191690831515021790555061016082015181600b019081611cd9919061504f565b50905050611ceb3060025484866128f2565b3360035f60025481526020019081526020015f205f6101000a81548173ffffffffffffffffffffffffffffffffffffffff021916908373ffffffffffffffffffffffffffffffffffffffff16021790555060045f3373ffffffffffffffffffffffffffffffffffffffff1673ffffffffffffffffffffffffffffffffffffffff1681526020019081526020015f20600254908060018154018082558091505060019003905f5260205f20015f909190919091505560025f815480929190611db19061511e565b91905055506001600254611dc591906149cc565b3373ffffffffffffffffffffffffffffffffffffffff167f5a27a2aee183bcd538945c27de908baf1eb38299f31367ad4e7a0905458d0cc284604051611e0b9190615188565b60405180910390a35050611e1d612987565b505050505050565b6005602052805f5260405f205f91509050805f015490806001015490806002015490806003015490806004015f9054906101000a900473ffffffffffffffffffffffffffffffffffffffff169080600501549080600601549080600701549080600801549080600901549080600a015f9054906101000a900460ff169080600b018054611eb19061464e565b80601f0160208091040260200160405190810160405280929190818152602001828054611edd9061464e565b8015611f285780601f10611eff57610100808354040283529160200191611f28565b820191905f5260205f20905b815481529060010190602001808311611f0b57829003601f168201915b505050505090508c565b5f63f23a6e6160e01b90509695505050505050565b5f611f5061228d565b90508073ffffffffffffffffffffffffffffffffffffffff168673ffffffffffffffffffffffffffffffffffffffff1614158015611f955750611f9386826118c3565b155b15611fd95780866040517fe237d922000000000000000000000000000000000000000000000000000000008152600401611fd092919061474e565b60405180910390fd5b611fe6868686868661299e565b505050505050565b611ff661228d565b73ffffffffffffffffffffffffffffffffffffffff168373ffffffffffffffffffffffffffffffffffffffff161415801561203f575061203d8361203861228d565b6118c3565b155b1561208a5761204c61228d565b836040517fe237d92200000000000000000000000000000000000000000000000000000000815260040161208192919061474e565b60405180910390fd5b6120958383836127b9565b505050565b6004602052815f5260405f2081815481106120b3575f80fd5b905f5260205f20015f91509150505481565b5f7f88be536d5240c274a3b1d3a1be54482fd9caa294f08c62a7cde569f49a3c4500905090565b5f7f7965db0b000000000000000000000000000000000000000000000000000000007bffffffffffffffffffffffffffffffffffffffffffffffffffffffff1916827bffffffffffffffffffffffffffffffffffffffffffffffffffffffff1916148061215e575061215d82612aa4565b5b9050919050565b6121e1848573ffffffffffffffffffffffffffffffffffffffff166323b872dd86868660405160240161219a939291906151b4565b604051602081830303815290604052915060e01b6020820180517bffffffffffffffffffffffffffffffffffffffffffffffffffffffff8381831617835250505050612b85565b50505050565b612261838473ffffffffffffffffffffffffffffffffffffffff1663a9059cbb858560405160240161221a9291906151e9565b604051602081830303815290604052915060e01b6020820180517bffffffffffffffffffffffffffffffffffffffffffffffffffffffff8381831617835250505050612b85565b505050565b5f7f02dd7bc7dec4dceedda775e58dd541e08a116c6c53815c0bd028192f7b626800905090565b5f33905090565b5f73ffffffffffffffffffffffffffffffffffffffff168473ffffffffffffffffffffffffffffffffffffffff1603612304575f6040517f57f447ce0000000000000000000000000000000000000000000000000000000081526004016122fb9190613f02565b60405180910390fd5b5f73ffffffffffffffffffffffffffffffffffffffff168573ffffffffffffffffffffffffffffffffffffffff1603612374575f6040517f01a8351400000000000000000000000000000000000000000000000000000000815260040161236b9190613f02565b60405180910390fd5b6123818585858585612c20565b5050505050565b6123998161239461228d565b612ccc565b50565b5f5f6123a6612266565b90506123b284846113c3565b612489576001815f015f8681526020019081526020015f205f015f8573ffffffffffffffffffffffffffffffffffffffff1673ffffffffffffffffffffffffffffffffffffffff1681526020019081526020015f205f6101000a81548160ff02191690831515021790555061242561228d565b73ffffffffffffffffffffffffffffffffffffffff168373ffffffffffffffffffffffffffffffffffffffff16857f2f8788117e7eff1d82e926ec794901d17c78024a50270940304540a733656f0d60405160405180910390a4600191505061248e565b5f9150505b92915050565b5f5f61249e612266565b90506124aa84846113c3565b15612581575f815f015f8681526020019081526020015f205f015f8573ffffffffffffffffffffffffffffffffffffffff1673ffffffffffffffffffffffffffffffffffffffff1681526020019081526020015f205f6101000a81548160ff02191690831515021790555061251d61228d565b73ffffffffffffffffffffffffffffffffffffffff168373ffffffffffffffffffffffffffffffffffffffff16857ff6391f5c32d9c69d2a47ea670b442974b53935d1edc7fd64eb21e047a839171b60405160405180910390a46001915050612586565b5f9150505b92915050565b5f60208202602084010151905092915050565b5f60208202602084010151905092915050565b5f73ffffffffffffffffffffffffffffffffffffffff168373ffffffffffffffffffffffffffffffffffffffff1603612622575f6040517f01a835140000000000000000000000000000000000000000000000000000000081526004016126199190613f02565b60405180910390fd5b61263d835f848460405180602001604052805f815250612c20565b505050565b5f61264b6120c5565b90505f73ffffffffffffffffffffffffffffffffffffffff168373ffffffffffffffffffffffffffffffffffffffff16036126bd575f6040517fced3e1000000000000000000000000000000000000000000000000000000000081526004016126b49190613f02565b60405180910390fd5b81816001015f8673ffffffffffffffffffffffffffffffffffffffff1673ffffffffffffffffffffffffffffffffffffffff1681526020019081526020015f205f8573ffffffffffffffffffffffffffffffffffffffff1673ffffffffffffffffffffffffffffffffffffffff1681526020019081526020015f205f6101000a81548160ff0219169083151502179055508273ffffffffffffffffffffffffffffffffffffffff168473ffffffffffffffffffffffffffffffffffffffff167f17307eab39ab6107e8899845ad3d59bd9653f200f220920489ca2b5937696c31846040516127ab9190613759565b60405180910390a350505050565b5f73ffffffffffffffffffffffffffffffffffffffff168373ffffffffffffffffffffffffffffffffffffffff1603612829575f6040517f01a835140000000000000000000000000000000000000000000000000000000081526004016128209190613f02565b60405180910390fd5b5f5f6128358484612d1d565b91509150612854855f848460405180602001604052805f815250612c20565b5050505050565b5f5f612865612d4d565b90508091505090565b612876612d76565b61287f81612db6565b50565b61288a612d76565b565b612894612d76565b61289c612dca565b565b5f6128a7612de9565b90506002815f0154036128e6576040517f3ee5aeb500000000000000000000000000000000000000000000000000000000815260040160405180910390fd5b6002815f018190555050565b5f73ffffffffffffffffffffffffffffffffffffffff168473ffffffffffffffffffffffffffffffffffffffff1603612962575f6040517f57f447ce0000000000000000000000000000000000000000000000000000000081526004016129599190613f02565b60405180910390fd5b5f5f61296e8585612d1d565b9150915061297f5f87848487612c20565b505050505050565b5f612990612de9565b90506001815f018190555050565b5f73ffffffffffffffffffffffffffffffffffffffff168473ffffffffffffffffffffffffffffffffffffffff1603612a0e575f6040517f57f447ce000000000000000000000000000000000000000000000000000000008152600401612a059190613f02565b60405180910390fd5b5f73ffffffffffffffffffffffffffffffffffffffff168573ffffffffffffffffffffffffffffffffffffffff1603612a7e575f6040517f01a83514000000000000000000000000000000000000000000000000000000008152600401612a759190613f02565b60405180910390fd5b5f5f612a8a8585612d1d565b91509150612a9b8787848487612c20565b50505050505050565b5f7fd9b67a26000000000000000000000000000000000000000000000000000000007bffffffffffffffffffffffffffffffffffffffffffffffffffffffff1916827bffffffffffffffffffffffffffffffffffffffffffffffffffffffff19161480612b6e57507f0e89341c000000000000000000000000000000000000000000000000000000007bffffffffffffffffffffffffffffffffffffffffffffffffffffffff1916827bffffffffffffffffffffffffffffffffffffffffffffffffffffffff1916145b80612b7e5750612b7d82612e10565b5b9050919050565b5f5f60205f8451602086015f885af180612ba4576040513d5f823e3d81fd5b3d92505f519150505f8214612bbd576001811415612bd8565b5f8473ffffffffffffffffffffffffffffffffffffffff163b145b15612c1a57836040517f5274afe7000000000000000000000000000000000000000000000000000000008152600401612c119190613f02565b60405180910390fd5b50505050565b612c2c85858585612e79565b5f73ffffffffffffffffffffffffffffffffffffffff168473ffffffffffffffffffffffffffffffffffffffff1614612cc5575f612c6861228d565b90506001845103612cb4575f612c875f8661259f90919063ffffffff16565b90505f612c9d5f8661259f90919063ffffffff16565b9050612cad83898985858961321e565b5050612cc3565b612cc28187878787876133cd565b5b505b5050505050565b612cd682826113c3565b612d195780826040517fe2517d3f000000000000000000000000000000000000000000000000000000008152600401612d10929190615210565b60405180910390fd5b5050565b60608060405191506001825283602083015260408201905060018152826020820152604081016040529250929050565b5f7ff0c57e16840df040f15088dc2f81fe391c3923bec73e23a9662efc9c229c6a005f1b905090565b612d7e61357c565b612db4576040517fd7e6bcf800000000000000000000000000000000000000000000000000000000815260040160405180910390fd5b565b612dbe612d76565b612dc78161359a565b50565b612dd2612d76565b5f612ddb612de9565b90506001815f018190555050565b5f7f9b779b17422d0df92223018b32b4d1fa46e071723d6817e2486d003becc55f00905090565b5f7f01ffc9a7000000000000000000000000000000000000000000000000000000007bffffffffffffffffffffffffffffffffffffffffffffffffffffffff1916827bffffffffffffffffffffffffffffffffffffffffffffffffffffffff1916149050919050565b5f612e826120c5565b90508151835114612ece57825182516040517f5b059991000000000000000000000000000000000000000000000000000000008152600401612ec5929190614775565b60405180910390fd5b5f612ed761228d565b90505f5f90505b84518110156130dc575f612efb828761259f90919063ffffffff16565b90505f612f11838761259f90919063ffffffff16565b90505f73ffffffffffffffffffffffffffffffffffffffff168973ffffffffffffffffffffffffffffffffffffffff1614613038575f855f015f8481526020019081526020015f205f8b73ffffffffffffffffffffffffffffffffffffffff1673ffffffffffffffffffffffffffffffffffffffff1681526020019081526020015f2054905081811015612fe257898183856040517f03dee4c5000000000000000000000000000000000000000000000000000000008152600401612fd99493929190615237565b60405180910390fd5b818103865f015f8581526020019081526020015f205f8c73ffffffffffffffffffffffffffffffffffffffff1673ffffffffffffffffffffffffffffffffffffffff1681526020019081526020015f2081905550505b5f73ffffffffffffffffffffffffffffffffffffffff168873ffffffffffffffffffffffffffffffffffffffff16146130cf5780855f015f8481526020019081526020015f205f8a73ffffffffffffffffffffffffffffffffffffffff1673ffffffffffffffffffffffffffffffffffffffff1681526020019081526020015f205f8282546130c79190614e85565b925050819055505b5050806001019050612ede565b506001845103613197575f6130fa5f8661259f90919063ffffffff16565b90505f6131105f8661259f90919063ffffffff16565b90508673ffffffffffffffffffffffffffffffffffffffff168873ffffffffffffffffffffffffffffffffffffffff168473ffffffffffffffffffffffffffffffffffffffff167fc3d58168c5ae7397731d063d5bbf3d657854427343f4c083240f7aacaa2d0f628585604051613188929190614775565b60405180910390a45050613216565b8473ffffffffffffffffffffffffffffffffffffffff168673ffffffffffffffffffffffffffffffffffffffff168273ffffffffffffffffffffffffffffffffffffffff167f4a39dc06d4c0dbc64b70af90fd698a233a518aa5d07e595d983b8c0526c8f7fb878760405161320d92919061527a565b60405180910390a45b505050505050565b5f8473ffffffffffffffffffffffffffffffffffffffff163b11156133c5578373ffffffffffffffffffffffffffffffffffffffff1663f23a6e6187878686866040518663ffffffff1660e01b815260040161327e9594939291906152af565b6020604051808303815f875af19250505080156132b957506040513d601f19601f820116820180604052508101906132b6919061531b565b60015b61333a573d805f81146132e7576040519150601f19603f3d011682016040523d82523d5f602084013e6132ec565b606091505b505f81510361333257846040517f57f447ce0000000000000000000000000000000000000000000000000000000081526004016133299190613f02565b60405180910390fd5b805160208201fd5b63f23a6e6160e01b7bffffffffffffffffffffffffffffffffffffffffffffffffffffffff1916817bffffffffffffffffffffffffffffffffffffffffffffffffffffffff1916146133c357846040517f57f447ce0000000000000000000000000000000000000000000000000000000081526004016133ba9190613f02565b60405180910390fd5b505b505050505050565b5f8473ffffffffffffffffffffffffffffffffffffffff163b1115613574578373ffffffffffffffffffffffffffffffffffffffff1663bc197c8187878686866040518663ffffffff1660e01b815260040161342d959493929190615346565b6020604051808303815f875af192505050801561346857506040513d601f19601f82011682018060405250810190613465919061531b565b60015b6134e9573d805f8114613496576040519150601f19603f3d011682016040523d82523d5f602084013e61349b565b606091505b505f8151036134e157846040517f57f447ce0000000000000000000000000000000000000000000000000000000081526004016134d89190613f02565b60405180910390fd5b805160208201fd5b63bc197c8160e01b7bffffffffffffffffffffffffffffffffffffffffffffffffffffffff1916817bffffffffffffffffffffffffffffffffffffffffffffffffffffffff19161461357257846040517f57f447ce0000000000000000000000000000000000000000000000000000000081526004016135699190613f02565b60405180910390fd5b505b505050505050565b5f61358561285b565b5f0160089054906101000a900460ff16905090565b5f6135a36120c5565b9050818160020190816135b69190615404565b505050565b5f604051905090565b5f5ffd5b5f5ffd5b5f73ffffffffffffffffffffffffffffffffffffffff82169050919050565b5f6135f5826135cc565b9050919050565b613605816135eb565b811461360f575f5ffd5b50565b5f81359050613620816135fc565b92915050565b5f819050919050565b61363881613626565b8114613642575f5ffd5b50565b5f813590506136538161362f565b92915050565b5f5f6040838503121561366f5761366e6135c4565b5b5f61367c85828601613612565b925050602061368d85828601613645565b9150509250929050565b6136a081613626565b82525050565b5f6020820190506136b95f830184613697565b92915050565b5f7fffffffff0000000000000000000000000000000000000000000000000000000082169050919050565b6136f3816136bf565b81146136fd575f5ffd5b50565b5f8135905061370e816136ea565b92915050565b5f60208284031215613729576137286135c4565b5b5f61373684828501613700565b91505092915050565b5f8115159050919050565b6137538161373f565b82525050565b5f60208201905061376c5f83018461374a565b92915050565b5f60208284031215613787576137866135c4565b5b5f61379484828501613645565b91505092915050565b5f81519050919050565b5f82825260208201905092915050565b8281835e5f83830152505050565b5f601f19601f8301169050919050565b5f6137df8261379d565b6137e981856137a7565b93506137f98185602086016137b7565b613802816137c5565b840191505092915050565b5f6020820190508181035f83015261382581846137d5565b905092915050565b5f819050919050565b61383f8161382d565b82525050565b5f6020820190506138585f830184613836565b92915050565b6138678161382d565b8114613871575f5ffd5b50565b5f813590506138828161385e565b92915050565b5f6020828403121561389d5761389c6135c4565b5b5f6138aa84828501613874565b91505092915050565b5f5ffd5b7f4e487b71000000000000000000000000000000000000000000000000000000005f52604160045260245ffd5b6138ed826137c5565b810181811067ffffffffffffffff8211171561390c5761390b6138b7565b5b80604052505050565b5f61391e6135bb565b905061392a82826138e4565b919050565b5f67ffffffffffffffff821115613949576139486138b7565b5b602082029050602081019050919050565b5f5ffd5b5f61397061396b8461392f565b613915565b905080838252602082019050602084028301858111156139935761399261395a565b5b835b818110156139bc57806139a88882613645565b845260208401935050602081019050613995565b5050509392505050565b5f82601f8301126139da576139d96138b3565b5b81356139ea84826020860161395e565b91505092915050565b5f5ffd5b5f67ffffffffffffffff821115613a1157613a106138b7565b5b613a1a826137c5565b9050602081019050919050565b828183375f83830152505050565b5f613a47613a42846139f7565b613915565b905082815260208101848484011115613a6357613a626139f3565b5b613a6e848285613a27565b509392505050565b5f82601f830112613a8a57613a896138b3565b5b8135613a9a848260208601613a35565b91505092915050565b5f5f5f5f5f60a08688031215613abc57613abb6135c4565b5b5f613ac988828901613612565b9550506020613ada88828901613612565b945050604086013567ffffffffffffffff811115613afb57613afa6135c8565b5b613b07888289016139c6565b935050606086013567ffffffffffffffff811115613b2857613b276135c8565b5b613b34888289016139c6565b925050608086013567ffffffffffffffff811115613b5557613b546135c8565b5b613b6188828901613a76565b9150509295509295909350565b5f5f60408385031215613b8457613b836135c4565b5b5f613b9185828601613874565b9250506020613ba285828601613612565b9150509250929050565b5f819050919050565b5f613bcf613bca613bc5846135cc565b613bac565b6135cc565b9050919050565b5f613be082613bb5565b9050919050565b5f613bf182613bd6565b9050919050565b613c0181613be7565b82525050565b5f602082019050613c1a5f830184613bf8565b92915050565b5f67ffffffffffffffff821115613c3a57613c396138b7565b5b602082029050602081019050919050565b5f613c5d613c5884613c20565b613915565b90508083825260208201905060208402830185811115613c8057613c7f61395a565b5b835b81811015613ca95780613c958882613612565b845260208401935050602081019050613c82565b5050509392505050565b5f82601f830112613cc757613cc66138b3565b5b8135613cd7848260208601613c4b565b91505092915050565b5f5f60408385031215613cf657613cf56135c4565b5b5f83013567ffffffffffffffff811115613d1357613d126135c8565b5b613d1f85828601613cb3565b925050602083013567ffffffffffffffff811115613d4057613d3f6135c8565b5b613d4c858286016139c6565b9150509250929050565b5f81519050919050565b5f82825260208201905092915050565b5f819050602082019050919050565b613d8881613626565b82525050565b5f613d998383613d7f565b60208301905092915050565b5f602082019050919050565b5f613dbb82613d56565b613dc58185613d60565b9350613dd083613d70565b805f5b83811015613e00578151613de78882613d8e565b9750613df283613da5565b925050600181019050613dd3565b5085935050505092915050565b5f6020820190508181035f830152613e258184613db1565b905092915050565b5f5f60408385031215613e4357613e426135c4565b5b5f613e5085828601613645565b9250506020613e6185828601613645565b9150509250929050565b5f5f5f60608486031215613e8257613e816135c4565b5b5f613e8f86828701613612565b935050602084013567ffffffffffffffff811115613eb057613eaf6135c8565b5b613ebc868287016139c6565b925050604084013567ffffffffffffffff811115613edd57613edc6135c8565b5b613ee9868287016139c6565b9150509250925092565b613efc816135eb565b82525050565b5f602082019050613f155f830184613ef3565b92915050565b5f60208284031215613f3057613f2f6135c4565b5b5f613f3d84828501613612565b91505092915050565b5f613f5082613bd6565b9050919050565b613f6081613f46565b82525050565b5f602082019050613f795f830184613f57565b92915050565b613f888161373f565b8114613f92575f5ffd5b50565b5f81359050613fa381613f7f565b92915050565b5f5f60408385031215613fbf57613fbe6135c4565b5b5f613fcc85828601613612565b9250506020613fdd85828601613f95565b9150509250929050565b5f5ffd5b5f5f83601f84011261400057613fff6138b3565b5b8235905067ffffffffffffffff81111561401d5761401c613fe7565b5b6020830191508360208202830111156140395761403861395a565b5b9250929050565b5f5f83601f840112614055576140546138b3565b5b8235905067ffffffffffffffff81111561407257614071613fe7565b5b60208301915083600182028301111561408e5761408d61395a565b5b9250929050565b5f5f5f5f5f5f5f5f60a0898b0312156140b1576140b06135c4565b5b5f6140be8b828c01613612565b98505060206140cf8b828c01613612565b975050604089013567ffffffffffffffff8111156140f0576140ef6135c8565b5b6140fc8b828c01613feb565b9650965050606089013567ffffffffffffffff81111561411f5761411e6135c8565b5b61412b8b828c01613feb565b9450945050608089013567ffffffffffffffff81111561414e5761414d6135c8565b5b61415a8b828c01614040565b92509250509295985092959890939650565b614175816136bf565b82525050565b5f60208201905061418e5f83018461416c565b92915050565b5f5f5f606084860312156141ab576141aa6135c4565b5b5f6141b886828701613612565b93505060206141c986828701613612565b92505060406141da86828701613612565b9150509250925092565b5f5f604083850312156141fa576141f96135c4565b5b5f61420785828601613612565b925050602061421885828601613612565b9150509250929050565b5f5f5f5f5f5f60c0878903121561423c5761423b6135c4565b5b5f61424989828a01613645565b965050602061425a89828a01613645565b955050604061426b89828a01613645565b945050606061427c89828a01613645565b935050608061428d89828a01613645565b92505060a087013567ffffffffffffffff8111156142ae576142ad6135c8565b5b6142ba89828a01613a76565b9150509295509295509295565b5f81519050919050565b5f82825260208201905092915050565b5f6142eb826142c7565b6142f581856142d1565b93506143058185602086016137b7565b61430e816137c5565b840191505092915050565b5f6101808201905061432d5f83018f613697565b61433a602083018e613697565b614347604083018d613697565b614354606083018c613697565b614361608083018b613ef3565b61436e60a083018a613697565b61437b60c0830189613697565b61438860e0830188613697565b614396610100830187613697565b6143a4610120830186613697565b6143b261014083018561374a565b8181036101608301526143c581846142e1565b90509d9c50505050505050505050505050565b5f5f5f5f5f5f60a087890312156143f2576143f16135c4565b5b5f6143ff89828a01613612565b965050602061441089828a01613612565b955050604061442189828a01613645565b945050606061443289828a01613645565b935050608087013567ffffffffffffffff811115614453576144526135c8565b5b61445f89828a01614040565b92509250509295509295509295565b5f5f5f5f5f60a08688031215614487576144866135c4565b5b5f61449488828901613612565b95505060206144a588828901613612565b94505060406144b688828901613645565b93505060606144c788828901613645565b925050608086013567ffffffffffffffff8111156144e8576144e76135c8565b5b6144f488828901613a76565b9150509295509295909350565b5f5f5f60608486031215614518576145176135c4565b5b5f61452586828701613612565b935050602061453686828701613645565b925050604061454786828701613645565b9150509250925092565b7f696e766f69636520616c72656164792066756c66696c6c6564000000000000005f82015250565b5f6145856019836137a7565b915061459082614551565b602082019050919050565b5f6020820190508181035f8301526145b281614579565b9050919050565b7f696e766f696365206e6f742079657420626f75676874207570000000000000005f82015250565b5f6145ed6019836137a7565b91506145f8826145b9565b602082019050919050565b5f6020820190508181035f83015261461a816145e1565b9050919050565b7f4e487b71000000000000000000000000000000000000000000000000000000005f52602260045260245ffd5b5f600282049050600182168061466557607f821691505b60208210810361467857614677614621565b5b50919050565b7f63616d706169676e206475726174696f6e206e6f74206f7665720000000000005f82015250565b5f6146b2601a836137a7565b91506146bd8261467e565b602082019050919050565b5f6020820190508181035f8301526146df816146a6565b9050919050565b7f6e6f74207468652063726561746f72206f662074686520696e766f69636500005f82015250565b5f61471a601e836137a7565b9150614725826146e6565b602082019050919050565b5f6020820190508181035f8301526147478161470e565b9050919050565b5f6040820190506147615f830185613ef3565b61476e6020830184613ef3565b9392505050565b5f6040820190506147885f830185613697565b6147956020830184613697565b9392505050565b7f4e487b71000000000000000000000000000000000000000000000000000000005f52603260045260245ffd5b7f63616d706169676e206475726174696f6e206f766572000000000000000000005f82015250565b5f6147fd6016836137a7565b9150614808826147c9565b602082019050919050565b5f6020820190508181035f83015261482a816147f1565b9050919050565b7f7175616e74697479206d7573742062652067726561746572207468616e2030005f82015250565b5f614865601f836137a7565b915061487082614831565b602082019050919050565b5f6020820190508181035f83015261489281614859565b9050919050565b7f6e6f7420656e6f75676820617661696c61626c6520737570706c7900000000005f82015250565b5f6148cd601b836137a7565b91506148d882614899565b602082019050919050565b5f6020820190508181035f8301526148fa816148c1565b9050919050565b7f4e487b71000000000000000000000000000000000000000000000000000000005f52601160045260245ffd5b5f61493882613626565b915061494383613626565b925082820261495181613626565b9150828204841483151761496857614967614901565b5b5092915050565b7f4e487b71000000000000000000000000000000000000000000000000000000005f52601260045260245ffd5b5f6149a682613626565b91506149b183613626565b9250826149c1576149c061496f565b5b828204905092915050565b5f6149d682613626565b91506149e183613626565b92508282039050818111156149f9576149f8614901565b5b92915050565b7f496e766f696365546f6b656e313135353a207a65726f206164647265737300005f82015250565b5f614a33601e836137a7565b9150614a3e826149ff565b602082019050919050565b5f6020820190508181035f830152614a6081614a27565b9050919050565b7f696e766f696365206e6f742066756c66696c6c656400000000000000000000005f82015250565b5f614a9b6015836137a7565b9150614aa682614a67565b602082019050919050565b5f6020820190508181035f830152614ac881614a8f565b9050919050565b7f6e6f7420656e6f75676820746f6b656e730000000000000000000000000000005f82015250565b5f614b036011836137a7565b9150614b0e82614acf565b602082019050919050565b5f6020820190508181035f830152614b3081614af7565b9050919050565b5f819050919050565b5f67ffffffffffffffff82169050919050565b5f614b6d614b68614b6384614b37565b613bac565b614b40565b9050919050565b614b7d81614b53565b82525050565b5f602082019050614b965f830184614b74565b92915050565b7f496e766f6963653a207a65726f20616d6f756e740000000000000000000000005f82015250565b5f614bd06014836137a7565b9150614bdb82614b9c565b602082019050919050565b5f6020820190508181035f830152614bfd81614bc4565b9050919050565b5f81519050614c1281613f7f565b92915050565b5f60208284031215614c2d57614c2c6135c4565b5b5f614c3a84828501614c04565b91505092915050565b7f55736572206d7573742062652061207265676973746572656420627573696e655f8201527f7373000000000000000000000000000000000000000000000000000000000000602082015250565b5f614c9d6022836137a7565b9150614ca882614c43565b604082019050919050565b5f6020820190508181035f830152614cca81614c91565b9050919050565b5f614cdb82613626565b9150614ce683613626565b925082614cf657614cf561496f565b5b828206905092915050565b7f756e69742076616c7565206d757374206265206120666163746f72206f6620695f8201527f6e766f6963652076616c75650000000000000000000000000000000000000000602082015250565b5f614d5b602c836137a7565b9150614d6682614d01565b604082019050919050565b5f6020820190508181035f830152614d8881614d4f565b9050919050565b7f696e766f6963652076616c7565206d75737420626520677265617465722074685f8201527f616e206f7220657175616c20746f206c6f616e20616d6f756e74000000000000602082015250565b5f614de9603a836137a7565b9150614df482614d8f565b604082019050919050565b5f6020820190508181035f830152614e1681614ddd565b9050919050565b7f6d757374206265206e6f6e2d7a65726f2076616c7565730000000000000000005f82015250565b5f614e516017836137a7565b9150614e5c82614e1d565b602082019050919050565b5f6020820190508181035f830152614e7e81614e45565b9050919050565b5f614e8f82613626565b9150614e9a83613626565b9250828201905080821115614eb257614eb1614901565b5b92915050565b5f819050815f5260205f209050919050565b5f6020601f8301049050919050565b5f82821b905092915050565b5f60088302614f147fffffffffffffffffffffffffffffffffffffffffffffffffffffffffffffffff82614ed9565b614f1e8683614ed9565b95508019841693508086168417925050509392505050565b5f614f50614f4b614f4684613626565b613bac565b613626565b9050919050565b5f819050919050565b614f6983614f36565b614f7d614f7582614f57565b848454614ee5565b825550505050565b5f5f905090565b614f94614f85565b614f9f818484614f60565b505050565b5b81811015614fc257614fb75f82614f8c565b600181019050614fa5565b5050565b601f82111561500757614fd881614eb8565b614fe184614eca565b81016020851015614ff0578190505b615004614ffc85614eca565b830182614fa4565b50505b505050565b5f82821c905092915050565b5f6150275f198460080261500c565b1980831691505092915050565b5f61503f8383615018565b9150826002028217905092915050565b615058826142c7565b67ffffffffffffffff811115615071576150706138b7565b5b61507b825461464e565b615086828285614fc6565b5f60209050601f8311600181146150b7575f84156150a5578287015190505b6150af8582615034565b865550615116565b601f1984166150c586614eb8565b5f5b828110156150ec578489015182556001820191506020850194506020810190506150c7565b868310156151095784890151615105601f891682615018565b8355505b6001600288020188555050505b505050505050565b5f61512882613626565b91507fffffffffffffffffffffffffffffffffffffffffffffffffffffffffffffffff820361515a57615159614901565b5b600182019050919050565b50565b5f6151735f836137a7565b915061517e82615165565b5f82019050919050565b5f60408201905061519b5f830184613697565b81810360208301526151ac81615168565b905092915050565b5f6060820190506151c75f830186613ef3565b6151d46020830185613ef3565b6151e16040830184613697565b949350505050565b5f6040820190506151fc5f830185613ef3565b6152096020830184613697565b9392505050565b5f6040820190506152235f830185613ef3565b6152306020830184613836565b9392505050565b5f60808201905061524a5f830187613ef3565b6152576020830186613697565b6152646040830185613697565b6152716060830184613697565b95945050505050565b5f6040820190508181035f8301526152928185613db1565b905081810360208301526152a68184613db1565b90509392505050565b5f60a0820190506152c25f830188613ef3565b6152cf6020830187613ef3565b6152dc6040830186613697565b6152e96060830185613697565b81810360808301526152fb81846142e1565b90509695505050505050565b5f81519050615315816136ea565b92915050565b5f602082840312156153305761532f6135c4565b5b5f61533d84828501615307565b91505092915050565b5f60a0820190506153595f830188613ef3565b6153666020830187613ef3565b81810360408301526153788186613db1565b9050818103606083015261538c8185613db1565b905081810360808301526153a081846142e1565b90509695505050505050565b5f819050815f5260205f209050919050565b601f8211156153ff576153d0816153ac565b6153d984614eca565b810160208510156153e8578190505b6153fc6153f485614eca565b830182614fa4565b50505b505050565b61540d8261379d565b67ffffffffffffffff811115615426576154256138b7565b5b615430825461464e565b61543b8282856153be565b5f60209050601f83116001811461546c575f841561545a578287015190505b6154648582615034565b8655506154cb565b601f19841661547a866153ac565b5f5b828110156154a15784890151825560018201915060208501945060208101905061547c565b868310156154be57848901516154ba601f891682615018565b8355505b6001600288020188555050505b50505050505056fea26469706673582212201a514a7a3e9db60841a65834841cd2060e03df2895810ea280d181ce330d070464736f6c634300081d0033","linkReferences":{}},"methodIdentifiers":{"BURNER_ROLE()":"282c51f3","DEFAULT_ADMIN_ROLE()":"a217fddf","HOOK_ADMIN_ROLE()":"227a6e63","balanceOf(address,uint256)":"00fdd58e","balanceOfBatch(address[],uint256[])":"4e1273f4","burn(address,uint256,uint256)":"f5298aca","burnBatch(address,uint256[],uint256[])":"6b20c454","buyInvoiceTokens(uint256,uint256)":"5ea27553","claimProfitFromMaturedInvoice(uint256,uint256)":"a3b6619f","createInvoice(uint256,uint256,uint256,uint256,uint256,bytes)":"eb829d3c","fulfillInvoice(uint256)":"05095c0c","getInvoiceOwner(uint256)":"7208b190","getRoleAdmin(bytes32)":"248a9ca3","grantRole(bytes32,address)":"2f2ff15d","hasRole(bytes32,address)":"91d14854","idToInvoiceDetails(uint256)":"ebafe1d0","idToOwner(uint256)":"bfc206ed","initialize(address,address,address)":"c0c53b8b","isApprovedForAll(address,address)":"e985e9c5","nonce()":"affed0e0","onERC1155BatchReceived(address,address,uint256[],uint256[],bytes)":"bc197c81","onERC1155Received(address,address,uint256,uint256,bytes)":"f23a6e61","ownerToIds(address,uint256)":"feb3d3d6","renounceRole(bytes32,address)":"36568abe","revokeRole(bytes32,address)":"d547741f","safeBatchTransferFrom(address,address,uint256[],uint256[],bytes)":"2eb2c2d6","safeTransferFrom(address,address,uint256,uint256,bytes)":"f242432a","setApprovalForAll(address,bool)":"a22cb465","setTransferHook(address)":"7f2dc61c","supportsInterface(bytes4)":"01ffc9a7","transferHook()":"82bc7bc9","uri(uint256)":"0e89341c","usdc()":"3e413bee","withdrawInvoiceLoan(uint256)":"1b8bf119"},"id":28}